{
	"contracts/SimpleStorage.sol": {
		"MyContract": {
			"abi": [
				{
					"inputs": [
						{
							"internalType": "string",
							"name": "_name",
							"type": "string"
						},
						{
							"internalType": "uint256",
							"name": "_age",
							"type": "uint256"
						},
						{
							"internalType": "bool",
							"name": "_isActive",
							"type": "bool"
						},
						{
							"internalType": "address",
							"name": "_walletAddress",
							"type": "address"
						}
					],
					"name": "addPerson",
					"outputs": [],
					"stateMutability": "nonpayable",
					"type": "function"
				},
				{
					"inputs": [
						{
							"internalType": "uint256",
							"name": "",
							"type": "uint256"
						}
					],
					"name": "allUsersDetails",
					"outputs": [
						{
							"internalType": "string",
							"name": "name",
							"type": "string"
						},
						{
							"internalType": "uint256",
							"name": "age",
							"type": "uint256"
						},
						{
							"internalType": "bool",
							"name": "isActive",
							"type": "bool"
						},
						{
							"internalType": "address",
							"name": "walletAddress",
							"type": "address"
						}
					],
					"stateMutability": "view",
					"type": "function"
				},
				{
					"inputs": [],
					"name": "favouriteNumber",
					"outputs": [
						{
							"internalType": "uint256",
							"name": "",
							"type": "uint256"
						}
					],
					"stateMutability": "view",
					"type": "function"
				},
				{
					"inputs": [
						{
							"internalType": "string",
							"name": "",
							"type": "string"
						}
					],
					"name": "nameToIsActive",
					"outputs": [
						{
							"internalType": "bool",
							"name": "",
							"type": "bool"
						}
					],
					"stateMutability": "view",
					"type": "function"
				},
				{
					"inputs": [],
					"name": "pat",
					"outputs": [
						{
							"internalType": "string",
							"name": "name",
							"type": "string"
						},
						{
							"internalType": "uint256",
							"name": "age",
							"type": "uint256"
						},
						{
							"internalType": "bool",
							"name": "isActive",
							"type": "bool"
						},
						{
							"internalType": "address",
							"name": "walletAddress",
							"type": "address"
						}
					],
					"stateMutability": "view",
					"type": "function"
				},
				{
					"inputs": [],
					"name": "retrieve",
					"outputs": [
						{
							"internalType": "uint256",
							"name": "",
							"type": "uint256"
						}
					],
					"stateMutability": "view",
					"type": "function"
				},
				{
					"inputs": [
						{
							"internalType": "uint256",
							"name": "_favouriteNumber",
							"type": "uint256"
						}
					],
					"name": "store",
					"outputs": [],
					"stateMutability": "nonpayable",
					"type": "function"
				}
			],
			"devdoc": {
				"kind": "dev",
				"methods": {},
				"version": 1
			},
			"evm": {
				"assembly": "    /* \"contracts/SimpleStorage.sol\":57:1006  contract MyContract {... */\n  mstore(0x40, 0x80)\n    /* \"contracts/SimpleStorage.sol\":315:465  Person({... */\n  mload(0x40)\n  dup1\n  0x80\n  add\n  0x40\n  mstore\n  dup1\n  mload(0x40)\n  dup1\n  0x40\n  add\n  0x40\n  mstore\n  dup1\n  0x09\n  dup2\n  mstore\n  0x20\n  add\n  0x53656261737469616e0000000000000000000000000000000000000000000000\n  dup2\n  mstore\n  pop\n  dup2\n  mstore\n  0x20\n  add\n    /* \"contracts/SimpleStorage.sol\":364:366  54 */\n  0x36\n    /* \"contracts/SimpleStorage.sol\":315:465  Person({... */\n  dup2\n  mstore\n  0x20\n  add\n    /* \"contracts/SimpleStorage.sol\":386:391  false */\n  0x00\n    /* \"contracts/SimpleStorage.sol\":315:465  Person({... */\n  iszero\n  iszero\n  dup2\n  mstore\n  0x20\n  add\n    /* \"contracts/SimpleStorage.sol\":416:458  0x6AdDB767E9D0F4A0B538a4aCEf5749Ad3Dad6FD1 */\n  0x6addb767e9d0f4a0b538a4acef5749ad3dad6fd1\n    /* \"contracts/SimpleStorage.sol\":315:465  Person({... */\n  0xffffffffffffffffffffffffffffffffffffffff\n  and\n  dup2\n  mstore\n  pop\n    /* \"contracts/SimpleStorage.sol\":295:465  Person public pat = Person({... */\n  0x02\n  0x00\n  dup3\n  add\n  mload\n  dup2\n  0x00\n  add\n  swap1\n  dup2\n  tag_1\n  swap2\n  swap1\n  tag_2\n  jump\t// in\ntag_1:\n  pop\n  0x20\n  dup3\n  add\n  mload\n  dup2\n  0x01\n  add\n  sstore\n  0x40\n  dup3\n  add\n  mload\n  dup2\n  0x02\n  add\n  exp(0x0100, 0x00)\n  dup2\n  sload\n  dup2\n  0xff\n  mul\n  not\n  and\n  swap1\n  dup4\n  iszero\n  iszero\n  mul\n  or\n  swap1\n  sstore\n  pop\n  0x60\n  dup3\n  add\n  mload\n  dup2\n  0x02\n  add\n  exp(0x0100, 0x01)\n  dup2\n  sload\n  dup2\n  0xffffffffffffffffffffffffffffffffffffffff\n  mul\n  not\n  and\n  swap1\n  dup4\n  0xffffffffffffffffffffffffffffffffffffffff\n  and\n  mul\n  or\n  swap1\n  sstore\n  pop\n  pop\n  pop\n    /* \"contracts/SimpleStorage.sol\":57:1006  contract MyContract {... */\n  callvalue\n  dup1\n  iszero\n  tag_3\n  jumpi\n  0x00\n  dup1\n  revert\ntag_3:\n  pop\n  jump(tag_4)\n    /* \"#utility.yul\":7:106   */\ntag_5:\n    /* \"#utility.yul\":59:65   */\n  0x00\n    /* \"#utility.yul\":93:98   */\n  dup2\n    /* \"#utility.yul\":87:99   */\n  mload\n    /* \"#utility.yul\":77:99   */\n  swap1\n  pop\n    /* \"#utility.yul\":7:106   */\n  swap2\n  swap1\n  pop\n  jump\t// out\n    /* \"#utility.yul\":112:292   */\ntag_6:\n    /* \"#utility.yul\":160:237   */\n  0x4e487b7100000000000000000000000000000000000000000000000000000000\n    /* \"#utility.yul\":157:158   */\n  0x00\n    /* \"#utility.yul\":150:238   */\n  mstore\n    /* \"#utility.yul\":257:261   */\n  0x41\n    /* \"#utility.yul\":254:255   */\n  0x04\n    /* \"#utility.yul\":247:262   */\n  mstore\n    /* \"#utility.yul\":281:285   */\n  0x24\n    /* \"#utility.yul\":278:279   */\n  0x00\n    /* \"#utility.yul\":271:286   */\n  revert\n    /* \"#utility.yul\":298:478   */\ntag_7:\n    /* \"#utility.yul\":346:423   */\n  0x4e487b7100000000000000000000000000000000000000000000000000000000\n    /* \"#utility.yul\":343:344   */\n  0x00\n    /* \"#utility.yul\":336:424   */\n  mstore\n    /* \"#utility.yul\":443:447   */\n  0x22\n    /* \"#utility.yul\":440:441   */\n  0x04\n    /* \"#utility.yul\":433:448   */\n  mstore\n    /* \"#utility.yul\":467:471   */\n  0x24\n    /* \"#utility.yul\":464:465   */\n  0x00\n    /* \"#utility.yul\":457:472   */\n  revert\n    /* \"#utility.yul\":484:804   */\ntag_8:\n    /* \"#utility.yul\":528:534   */\n  0x00\n    /* \"#utility.yul\":565:566   */\n  0x02\n    /* \"#utility.yul\":559:563   */\n  dup3\n    /* \"#utility.yul\":555:567   */\n  div\n    /* \"#utility.yul\":545:567   */\n  swap1\n  pop\n    /* \"#utility.yul\":612:613   */\n  0x01\n    /* \"#utility.yul\":606:610   */\n  dup3\n    /* \"#utility.yul\":602:614   */\n  and\n    /* \"#utility.yul\":633:651   */\n  dup1\n    /* \"#utility.yul\":623:704   */\n  tag_30\n  jumpi\n    /* \"#utility.yul\":689:693   */\n  0x7f\n    /* \"#utility.yul\":681:687   */\n  dup3\n    /* \"#utility.yul\":677:694   */\n  and\n    /* \"#utility.yul\":667:694   */\n  swap2\n  pop\n    /* \"#utility.yul\":623:704   */\ntag_30:\n    /* \"#utility.yul\":751:753   */\n  0x20\n    /* \"#utility.yul\":743:749   */\n  dup3\n    /* \"#utility.yul\":740:754   */\n  lt\n    /* \"#utility.yul\":720:738   */\n  dup2\n    /* \"#utility.yul\":717:755   */\n  sub\n    /* \"#utility.yul\":714:798   */\n  tag_31\n  jumpi\n    /* \"#utility.yul\":770:788   */\n  tag_32\n  tag_7\n  jump\t// in\ntag_32:\n    /* \"#utility.yul\":714:798   */\ntag_31:\n    /* \"#utility.yul\":535:804   */\n  pop\n    /* \"#utility.yul\":484:804   */\n  swap2\n  swap1\n  pop\n  jump\t// out\n    /* \"#utility.yul\":810:951   */\ntag_9:\n    /* \"#utility.yul\":859:863   */\n  0x00\n    /* \"#utility.yul\":882:885   */\n  dup2\n    /* \"#utility.yul\":874:885   */\n  swap1\n  pop\n    /* \"#utility.yul\":905:908   */\n  dup2\n    /* \"#utility.yul\":902:903   */\n  0x00\n    /* \"#utility.yul\":895:909   */\n  mstore\n    /* \"#utility.yul\":939:943   */\n  0x20\n    /* \"#utility.yul\":936:937   */\n  0x00\n    /* \"#utility.yul\":926:944   */\n  keccak256\n    /* \"#utility.yul\":918:944   */\n  swap1\n  pop\n    /* \"#utility.yul\":810:951   */\n  swap2\n  swap1\n  pop\n  jump\t// out\n    /* \"#utility.yul\":957:1050   */\ntag_10:\n    /* \"#utility.yul\":994:1000   */\n  0x00\n    /* \"#utility.yul\":1041:1043   */\n  0x20\n    /* \"#utility.yul\":1036:1038   */\n  0x1f\n    /* \"#utility.yul\":1029:1034   */\n  dup4\n    /* \"#utility.yul\":1025:1039   */\n  add\n    /* \"#utility.yul\":1021:1044   */\n  div\n    /* \"#utility.yul\":1011:1044   */\n  swap1\n  pop\n    /* \"#utility.yul\":957:1050   */\n  swap2\n  swap1\n  pop\n  jump\t// out\n    /* \"#utility.yul\":1056:1163   */\ntag_11:\n    /* \"#utility.yul\":1100:1108   */\n  0x00\n    /* \"#utility.yul\":1150:1155   */\n  dup3\n    /* \"#utility.yul\":1144:1148   */\n  dup3\n    /* \"#utility.yul\":1140:1156   */\n  shl\n    /* \"#utility.yul\":1119:1156   */\n  swap1\n  pop\n    /* \"#utility.yul\":1056:1163   */\n  swap3\n  swap2\n  pop\n  pop\n  jump\t// out\n    /* \"#utility.yul\":1169:1562   */\ntag_12:\n    /* \"#utility.yul\":1238:1244   */\n  0x00\n    /* \"#utility.yul\":1288:1289   */\n  0x08\n    /* \"#utility.yul\":1276:1286   */\n  dup4\n    /* \"#utility.yul\":1272:1290   */\n  mul\n    /* \"#utility.yul\":1311:1408   */\n  tag_37\n    /* \"#utility.yul\":1341:1407   */\n  0xffffffffffffffffffffffffffffffffffffffffffffffffffffffffffffffff\n    /* \"#utility.yul\":1330:1339   */\n  dup3\n    /* \"#utility.yul\":1311:1408   */\n  tag_11\n  jump\t// in\ntag_37:\n    /* \"#utility.yul\":1429:1468   */\n  tag_38\n    /* \"#utility.yul\":1459:1467   */\n  dup7\n    /* \"#utility.yul\":1448:1457   */\n  dup4\n    /* \"#utility.yul\":1429:1468   */\n  tag_11\n  jump\t// in\ntag_38:\n    /* \"#utility.yul\":1417:1468   */\n  swap6\n  pop\n    /* \"#utility.yul\":1501:1505   */\n  dup1\n    /* \"#utility.yul\":1497:1506   */\n  not\n    /* \"#utility.yul\":1490:1495   */\n  dup5\n    /* \"#utility.yul\":1486:1507   */\n  and\n    /* \"#utility.yul\":1477:1507   */\n  swap4\n  pop\n    /* \"#utility.yul\":1550:1554   */\n  dup1\n    /* \"#utility.yul\":1540:1548   */\n  dup7\n    /* \"#utility.yul\":1536:1555   */\n  and\n    /* \"#utility.yul\":1529:1534   */\n  dup5\n    /* \"#utility.yul\":1526:1556   */\n  or\n    /* \"#utility.yul\":1516:1556   */\n  swap3\n  pop\n    /* \"#utility.yul\":1245:1562   */\n  pop\n  pop\n    /* \"#utility.yul\":1169:1562   */\n  swap4\n  swap3\n  pop\n  pop\n  pop\n  jump\t// out\n    /* \"#utility.yul\":1568:1645   */\ntag_13:\n    /* \"#utility.yul\":1605:1612   */\n  0x00\n    /* \"#utility.yul\":1634:1639   */\n  dup2\n    /* \"#utility.yul\":1623:1639   */\n  swap1\n  pop\n    /* \"#utility.yul\":1568:1645   */\n  swap2\n  swap1\n  pop\n  jump\t// out\n    /* \"#utility.yul\":1651:1711   */\ntag_14:\n    /* \"#utility.yul\":1679:1682   */\n  0x00\n    /* \"#utility.yul\":1700:1705   */\n  dup2\n    /* \"#utility.yul\":1693:1705   */\n  swap1\n  pop\n    /* \"#utility.yul\":1651:1711   */\n  swap2\n  swap1\n  pop\n  jump\t// out\n    /* \"#utility.yul\":1717:1859   */\ntag_15:\n    /* \"#utility.yul\":1767:1776   */\n  0x00\n    /* \"#utility.yul\":1800:1853   */\n  tag_42\n    /* \"#utility.yul\":1818:1852   */\n  tag_43\n    /* \"#utility.yul\":1827:1851   */\n  tag_44\n    /* \"#utility.yul\":1845:1850   */\n  dup5\n    /* \"#utility.yul\":1827:1851   */\n  tag_13\n  jump\t// in\ntag_44:\n    /* \"#utility.yul\":1818:1852   */\n  tag_14\n  jump\t// in\ntag_43:\n    /* \"#utility.yul\":1800:1853   */\n  tag_13\n  jump\t// in\ntag_42:\n    /* \"#utility.yul\":1787:1853   */\n  swap1\n  pop\n    /* \"#utility.yul\":1717:1859   */\n  swap2\n  swap1\n  pop\n  jump\t// out\n    /* \"#utility.yul\":1865:1940   */\ntag_16:\n    /* \"#utility.yul\":1908:1911   */\n  0x00\n    /* \"#utility.yul\":1929:1934   */\n  dup2\n    /* \"#utility.yul\":1922:1934   */\n  swap1\n  pop\n    /* \"#utility.yul\":1865:1940   */\n  swap2\n  swap1\n  pop\n  jump\t// out\n    /* \"#utility.yul\":1946:2215   */\ntag_17:\n    /* \"#utility.yul\":2056:2095   */\n  tag_47\n    /* \"#utility.yul\":2087:2094   */\n  dup4\n    /* \"#utility.yul\":2056:2095   */\n  tag_15\n  jump\t// in\ntag_47:\n    /* \"#utility.yul\":2117:2208   */\n  tag_48\n    /* \"#utility.yul\":2166:2207   */\n  tag_49\n    /* \"#utility.yul\":2190:2206   */\n  dup3\n    /* \"#utility.yul\":2166:2207   */\n  tag_16\n  jump\t// in\ntag_49:\n    /* \"#utility.yul\":2158:2164   */\n  dup5\n    /* \"#utility.yul\":2151:2155   */\n  dup5\n    /* \"#utility.yul\":2145:2156   */\n  sload\n    /* \"#utility.yul\":2117:2208   */\n  tag_12\n  jump\t// in\ntag_48:\n    /* \"#utility.yul\":2111:2115   */\n  dup3\n    /* \"#utility.yul\":2104:2209   */\n  sstore\n    /* \"#utility.yul\":2022:2215   */\n  pop\n    /* \"#utility.yul\":1946:2215   */\n  pop\n  pop\n  pop\n  jump\t// out\n    /* \"#utility.yul\":2221:2294   */\ntag_18:\n    /* \"#utility.yul\":2266:2269   */\n  0x00\n    /* \"#utility.yul\":2221:2294   */\n  swap1\n  jump\t// out\n    /* \"#utility.yul\":2300:2489   */\ntag_19:\n    /* \"#utility.yul\":2377:2409   */\n  tag_52\n  tag_18\n  jump\t// in\ntag_52:\n    /* \"#utility.yul\":2418:2483   */\n  tag_53\n    /* \"#utility.yul\":2476:2482   */\n  dup2\n    /* \"#utility.yul\":2468:2474   */\n  dup5\n    /* \"#utility.yul\":2462:2466   */\n  dup5\n    /* \"#utility.yul\":2418:2483   */\n  tag_17\n  jump\t// in\ntag_53:\n    /* \"#utility.yul\":2353:2489   */\n  pop\n    /* \"#utility.yul\":2300:2489   */\n  pop\n  pop\n  jump\t// out\n    /* \"#utility.yul\":2495:2681   */\ntag_20:\n    /* \"#utility.yul\":2555:2675   */\ntag_55:\n    /* \"#utility.yul\":2572:2575   */\n  dup2\n    /* \"#utility.yul\":2565:2570   */\n  dup2\n    /* \"#utility.yul\":2562:2576   */\n  lt\n    /* \"#utility.yul\":2555:2675   */\n  iszero\n  tag_57\n  jumpi\n    /* \"#utility.yul\":2626:2665   */\n  tag_58\n    /* \"#utility.yul\":2663:2664   */\n  0x00\n    /* \"#utility.yul\":2656:2661   */\n  dup3\n    /* \"#utility.yul\":2626:2665   */\n  tag_19\n  jump\t// in\ntag_58:\n    /* \"#utility.yul\":2599:2600   */\n  0x01\n    /* \"#utility.yul\":2592:2597   */\n  dup2\n    /* \"#utility.yul\":2588:2601   */\n  add\n    /* \"#utility.yul\":2579:2601   */\n  swap1\n  pop\n    /* \"#utility.yul\":2555:2675   */\n  jump(tag_55)\ntag_57:\n    /* \"#utility.yul\":2495:2681   */\n  pop\n  pop\n  jump\t// out\n    /* \"#utility.yul\":2687:3230   */\ntag_21:\n    /* \"#utility.yul\":2788:2790   */\n  0x1f\n    /* \"#utility.yul\":2783:2786   */\n  dup3\n    /* \"#utility.yul\":2780:2791   */\n  gt\n    /* \"#utility.yul\":2777:3223   */\n  iszero\n  tag_60\n  jumpi\n    /* \"#utility.yul\":2822:2860   */\n  tag_61\n    /* \"#utility.yul\":2854:2859   */\n  dup2\n    /* \"#utility.yul\":2822:2860   */\n  tag_9\n  jump\t// in\ntag_61:\n    /* \"#utility.yul\":2906:2935   */\n  tag_62\n    /* \"#utility.yul\":2924:2934   */\n  dup5\n    /* \"#utility.yul\":2906:2935   */\n  tag_10\n  jump\t// in\ntag_62:\n    /* \"#utility.yul\":2896:2904   */\n  dup2\n    /* \"#utility.yul\":2892:2936   */\n  add\n    /* \"#utility.yul\":3089:3091   */\n  0x20\n    /* \"#utility.yul\":3077:3087   */\n  dup6\n    /* \"#utility.yul\":3074:3092   */\n  lt\n    /* \"#utility.yul\":3071:3120   */\n  iszero\n  tag_63\n  jumpi\n    /* \"#utility.yul\":3110:3118   */\n  dup2\n    /* \"#utility.yul\":3095:3118   */\n  swap1\n  pop\n    /* \"#utility.yul\":3071:3120   */\ntag_63:\n    /* \"#utility.yul\":3133:3213   */\n  tag_64\n    /* \"#utility.yul\":3189:3211   */\n  tag_65\n    /* \"#utility.yul\":3207:3210   */\n  dup6\n    /* \"#utility.yul\":3189:3211   */\n  tag_10\n  jump\t// in\ntag_65:\n    /* \"#utility.yul\":3179:3187   */\n  dup4\n    /* \"#utility.yul\":3175:3212   */\n  add\n    /* \"#utility.yul\":3162:3173   */\n  dup3\n    /* \"#utility.yul\":3133:3213   */\n  tag_20\n  jump\t// in\ntag_64:\n    /* \"#utility.yul\":2792:3223   */\n  pop\n  pop\n    /* \"#utility.yul\":2777:3223   */\ntag_60:\n    /* \"#utility.yul\":2687:3230   */\n  pop\n  pop\n  pop\n  jump\t// out\n    /* \"#utility.yul\":3236:3353   */\ntag_22:\n    /* \"#utility.yul\":3290:3298   */\n  0x00\n    /* \"#utility.yul\":3340:3345   */\n  dup3\n    /* \"#utility.yul\":3334:3338   */\n  dup3\n    /* \"#utility.yul\":3330:3346   */\n  shr\n    /* \"#utility.yul\":3309:3346   */\n  swap1\n  pop\n    /* \"#utility.yul\":3236:3353   */\n  swap3\n  swap2\n  pop\n  pop\n  jump\t// out\n    /* \"#utility.yul\":3359:3528   */\ntag_23:\n    /* \"#utility.yul\":3403:3409   */\n  0x00\n    /* \"#utility.yul\":3436:3487   */\n  tag_68\n    /* \"#utility.yul\":3484:3485   */\n  0x00\n    /* \"#utility.yul\":3480:3486   */\n  not\n    /* \"#utility.yul\":3472:3477   */\n  dup5\n    /* \"#utility.yul\":3469:3470   */\n  0x08\n    /* \"#utility.yul\":3465:3478   */\n  mul\n    /* \"#utility.yul\":3436:3487   */\n  tag_22\n  jump\t// in\ntag_68:\n    /* \"#utility.yul\":3432:3488   */\n  not\n    /* \"#utility.yul\":3517:3521   */\n  dup1\n    /* \"#utility.yul\":3511:3515   */\n  dup4\n    /* \"#utility.yul\":3507:3522   */\n  and\n    /* \"#utility.yul\":3497:3522   */\n  swap2\n  pop\n    /* \"#utility.yul\":3410:3528   */\n  pop\n    /* \"#utility.yul\":3359:3528   */\n  swap3\n  swap2\n  pop\n  pop\n  jump\t// out\n    /* \"#utility.yul\":3533:3828   */\ntag_24:\n    /* \"#utility.yul\":3609:3613   */\n  0x00\n    /* \"#utility.yul\":3755:3784   */\n  tag_70\n    /* \"#utility.yul\":3780:3783   */\n  dup4\n    /* \"#utility.yul\":3774:3778   */\n  dup4\n    /* \"#utility.yul\":3755:3784   */\n  tag_23\n  jump\t// in\ntag_70:\n    /* \"#utility.yul\":3747:3784   */\n  swap2\n  pop\n    /* \"#utility.yul\":3817:3820   */\n  dup3\n    /* \"#utility.yul\":3814:3815   */\n  0x02\n    /* \"#utility.yul\":3810:3821   */\n  mul\n    /* \"#utility.yul\":3804:3808   */\n  dup3\n    /* \"#utility.yul\":3801:3822   */\n  or\n    /* \"#utility.yul\":3793:3822   */\n  swap1\n  pop\n    /* \"#utility.yul\":3533:3828   */\n  swap3\n  swap2\n  pop\n  pop\n  jump\t// out\n    /* \"#utility.yul\":3833:5228   */\ntag_2:\n    /* \"#utility.yul\":3950:3987   */\n  tag_72\n    /* \"#utility.yul\":3983:3986   */\n  dup3\n    /* \"#utility.yul\":3950:3987   */\n  tag_5\n  jump\t// in\ntag_72:\n    /* \"#utility.yul\":4052:4070   */\n  0xffffffffffffffff\n    /* \"#utility.yul\":4044:4050   */\n  dup2\n    /* \"#utility.yul\":4041:4071   */\n  gt\n    /* \"#utility.yul\":4038:4094   */\n  iszero\n  tag_73\n  jumpi\n    /* \"#utility.yul\":4074:4092   */\n  tag_74\n  tag_6\n  jump\t// in\ntag_74:\n    /* \"#utility.yul\":4038:4094   */\ntag_73:\n    /* \"#utility.yul\":4118:4156   */\n  tag_75\n    /* \"#utility.yul\":4150:4154   */\n  dup3\n    /* \"#utility.yul\":4144:4155   */\n  sload\n    /* \"#utility.yul\":4118:4156   */\n  tag_8\n  jump\t// in\ntag_75:\n    /* \"#utility.yul\":4203:4270   */\n  tag_76\n    /* \"#utility.yul\":4263:4269   */\n  dup3\n    /* \"#utility.yul\":4255:4261   */\n  dup3\n    /* \"#utility.yul\":4249:4253   */\n  dup6\n    /* \"#utility.yul\":4203:4270   */\n  tag_21\n  jump\t// in\ntag_76:\n    /* \"#utility.yul\":4297:4298   */\n  0x00\n    /* \"#utility.yul\":4321:4325   */\n  0x20\n    /* \"#utility.yul\":4308:4325   */\n  swap1\n  pop\n    /* \"#utility.yul\":4353:4355   */\n  0x1f\n    /* \"#utility.yul\":4345:4351   */\n  dup4\n    /* \"#utility.yul\":4342:4356   */\n  gt\n    /* \"#utility.yul\":4370:4371   */\n  0x01\n    /* \"#utility.yul\":4365:4983   */\n  dup2\n  eq\n  tag_78\n  jumpi\n    /* \"#utility.yul\":5027:5028   */\n  0x00\n    /* \"#utility.yul\":5044:5050   */\n  dup5\n    /* \"#utility.yul\":5041:5118   */\n  iszero\n  tag_79\n  jumpi\n    /* \"#utility.yul\":5093:5102   */\n  dup3\n    /* \"#utility.yul\":5088:5091   */\n  dup8\n    /* \"#utility.yul\":5084:5103   */\n  add\n    /* \"#utility.yul\":5078:5104   */\n  mload\n    /* \"#utility.yul\":5069:5104   */\n  swap1\n  pop\n    /* \"#utility.yul\":5041:5118   */\ntag_79:\n    /* \"#utility.yul\":5144:5211   */\n  tag_80\n    /* \"#utility.yul\":5204:5210   */\n  dup6\n    /* \"#utility.yul\":5197:5202   */\n  dup3\n    /* \"#utility.yul\":5144:5211   */\n  tag_24\n  jump\t// in\ntag_80:\n    /* \"#utility.yul\":5138:5142   */\n  dup7\n    /* \"#utility.yul\":5131:5212   */\n  sstore\n    /* \"#utility.yul\":5000:5222   */\n  pop\n    /* \"#utility.yul\":4335:5222   */\n  jump(tag_77)\n    /* \"#utility.yul\":4365:4983   */\ntag_78:\n    /* \"#utility.yul\":4417:4421   */\n  0x1f\n    /* \"#utility.yul\":4413:4422   */\n  not\n    /* \"#utility.yul\":4405:4411   */\n  dup5\n    /* \"#utility.yul\":4401:4423   */\n  and\n    /* \"#utility.yul\":4451:4488   */\n  tag_81\n    /* \"#utility.yul\":4483:4487   */\n  dup7\n    /* \"#utility.yul\":4451:4488   */\n  tag_9\n  jump\t// in\ntag_81:\n    /* \"#utility.yul\":4510:4511   */\n  0x00\n    /* \"#utility.yul\":4524:4732   */\ntag_82:\n    /* \"#utility.yul\":4538:4545   */\n  dup3\n    /* \"#utility.yul\":4535:4536   */\n  dup2\n    /* \"#utility.yul\":4532:4546   */\n  lt\n    /* \"#utility.yul\":4524:4732   */\n  iszero\n  tag_84\n  jumpi\n    /* \"#utility.yul\":4617:4626   */\n  dup5\n    /* \"#utility.yul\":4612:4615   */\n  dup10\n    /* \"#utility.yul\":4608:4627   */\n  add\n    /* \"#utility.yul\":4602:4628   */\n  mload\n    /* \"#utility.yul\":4594:4600   */\n  dup3\n    /* \"#utility.yul\":4587:4629   */\n  sstore\n    /* \"#utility.yul\":4668:4669   */\n  0x01\n    /* \"#utility.yul\":4660:4666   */\n  dup3\n    /* \"#utility.yul\":4656:4670   */\n  add\n    /* \"#utility.yul\":4646:4670   */\n  swap2\n  pop\n    /* \"#utility.yul\":4715:4717   */\n  0x20\n    /* \"#utility.yul\":4704:4713   */\n  dup6\n    /* \"#utility.yul\":4700:4718   */\n  add\n    /* \"#utility.yul\":4687:4718   */\n  swap5\n  pop\n    /* \"#utility.yul\":4561:4565   */\n  0x20\n    /* \"#utility.yul\":4558:4559   */\n  dup2\n    /* \"#utility.yul\":4554:4566   */\n  add\n    /* \"#utility.yul\":4549:4566   */\n  swap1\n  pop\n    /* \"#utility.yul\":4524:4732   */\n  jump(tag_82)\ntag_84:\n    /* \"#utility.yul\":4760:4766   */\n  dup7\n    /* \"#utility.yul\":4751:4758   */\n  dup4\n    /* \"#utility.yul\":4748:4767   */\n  lt\n    /* \"#utility.yul\":4745:4924   */\n  iszero\n  tag_85\n  jumpi\n    /* \"#utility.yul\":4818:4827   */\n  dup5\n    /* \"#utility.yul\":4813:4816   */\n  dup10\n    /* \"#utility.yul\":4809:4828   */\n  add\n    /* \"#utility.yul\":4803:4829   */\n  mload\n    /* \"#utility.yul\":4861:4909   */\n  tag_86\n    /* \"#utility.yul\":4903:4907   */\n  0x1f\n    /* \"#utility.yul\":4895:4901   */\n  dup10\n    /* \"#utility.yul\":4891:4908   */\n  and\n    /* \"#utility.yul\":4880:4889   */\n  dup3\n    /* \"#utility.yul\":4861:4909   */\n  tag_23\n  jump\t// in\ntag_86:\n    /* \"#utility.yul\":4853:4859   */\n  dup4\n    /* \"#utility.yul\":4846:4910   */\n  sstore\n    /* \"#utility.yul\":4768:4924   */\n  pop\n    /* \"#utility.yul\":4745:4924   */\ntag_85:\n    /* \"#utility.yul\":4970:4971   */\n  0x01\n    /* \"#utility.yul\":4966:4967   */\n  0x02\n    /* \"#utility.yul\":4958:4964   */\n  dup9\n    /* \"#utility.yul\":4954:4968   */\n  mul\n    /* \"#utility.yul\":4950:4972   */\n  add\n    /* \"#utility.yul\":4944:4948   */\n  dup9\n    /* \"#utility.yul\":4937:4973   */\n  sstore\n    /* \"#utility.yul\":4372:4983   */\n  pop\n  pop\n  pop\n    /* \"#utility.yul\":4335:5222   */\ntag_77:\n  pop\n    /* \"#utility.yul\":3925:5228   */\n  pop\n  pop\n  pop\n    /* \"#utility.yul\":3833:5228   */\n  pop\n  pop\n  jump\t// out\n    /* \"contracts/SimpleStorage.sol\":57:1006  contract MyContract {... */\ntag_4:\n  dataSize(sub_0)\n  dup1\n  dataOffset(sub_0)\n  0x00\n  codecopy\n  0x00\n  return\nstop\n\nsub_0: assembly {\n        /* \"contracts/SimpleStorage.sol\":57:1006  contract MyContract {... */\n      mstore(0x40, 0x80)\n      callvalue\n      dup1\n      iszero\n      tag_1\n      jumpi\n      0x00\n      dup1\n      revert\n    tag_1:\n      pop\n      jumpi(tag_2, lt(calldatasize, 0x04))\n      shr(0xe0, calldataload(0x00))\n      dup1\n      0x43ede4ae\n      gt\n      tag_10\n      jumpi\n      dup1\n      0x43ede4ae\n      eq\n      tag_6\n      jumpi\n      dup1\n      0x6057361d\n      eq\n      tag_7\n      jumpi\n      dup1\n      0xa83fbe54\n      eq\n      tag_8\n      jumpi\n      dup1\n      0xb4a24f50\n      eq\n      tag_9\n      jumpi\n      jump(tag_2)\n    tag_10:\n      dup1\n      0x0739a50e\n      eq\n      tag_3\n      jumpi\n      dup1\n      0x14eaeb82\n      eq\n      tag_4\n      jumpi\n      dup1\n      0x2e64cec1\n      eq\n      tag_5\n      jumpi\n    tag_2:\n      0x00\n      dup1\n      revert\n        /* \"contracts/SimpleStorage.sol\":635:909  function addPerson(string memory _name, uint256 _age, bool _isActive, address _walletAddress) public {... */\n    tag_3:\n      tag_11\n      0x04\n      dup1\n      calldatasize\n      sub\n      dup2\n      add\n      swap1\n      tag_12\n      swap2\n      swap1\n      tag_13\n      jump\t// in\n    tag_12:\n      tag_14\n      jump\t// in\n    tag_11:\n      stop\n        /* \"contracts/SimpleStorage.sol\":472:503  Person[] public allUsersDetails */\n    tag_4:\n      tag_15\n      0x04\n      dup1\n      calldatasize\n      sub\n      dup2\n      add\n      swap1\n      tag_16\n      swap2\n      swap1\n      tag_17\n      jump\t// in\n    tag_16:\n      tag_18\n      jump\t// in\n    tag_15:\n      mload(0x40)\n      tag_19\n      swap5\n      swap4\n      swap3\n      swap2\n      swap1\n      tag_20\n      jump\t// in\n    tag_19:\n      mload(0x40)\n      dup1\n      swap2\n      sub\n      swap1\n      return\n        /* \"contracts/SimpleStorage.sol\":915:1004  function retrieve() public view returns (uint256) {... */\n    tag_5:\n      tag_21\n      tag_22\n      jump\t// in\n    tag_21:\n      mload(0x40)\n      tag_23\n      swap2\n      swap1\n      tag_24\n      jump\t// in\n    tag_23:\n      mload(0x40)\n      dup1\n      swap2\n      sub\n      swap1\n      return\n        /* \"contracts/SimpleStorage.sol\":206:236  uint256 public favouriteNumber */\n    tag_6:\n      tag_25\n      tag_26\n      jump\t// in\n    tag_25:\n      mload(0x40)\n      tag_27\n      swap2\n      swap1\n      tag_24\n      jump\t// in\n    tag_27:\n      mload(0x40)\n      dup1\n      swap2\n      sub\n      swap1\n      return\n        /* \"contracts/SimpleStorage.sol\":510:629  function store(uint256 _favouriteNumber) public {... */\n    tag_7:\n      tag_28\n      0x04\n      dup1\n      calldatasize\n      sub\n      dup2\n      add\n      swap1\n      tag_29\n      swap2\n      swap1\n      tag_17\n      jump\t// in\n    tag_29:\n      tag_30\n      jump\t// in\n    tag_28:\n      stop\n        /* \"contracts/SimpleStorage.sol\":243:288  mapping(string => bool) public nameToIsActive */\n    tag_8:\n      tag_31\n      0x04\n      dup1\n      calldatasize\n      sub\n      dup2\n      add\n      swap1\n      tag_32\n      swap2\n      swap1\n      tag_33\n      jump\t// in\n    tag_32:\n      tag_34\n      jump\t// in\n    tag_31:\n      mload(0x40)\n      tag_35\n      swap2\n      swap1\n      tag_36\n      jump\t// in\n    tag_35:\n      mload(0x40)\n      dup1\n      swap2\n      sub\n      swap1\n      return\n        /* \"contracts/SimpleStorage.sol\":295:465  Person public pat = Person({... */\n    tag_9:\n      tag_37\n      tag_38\n      jump\t// in\n    tag_37:\n      mload(0x40)\n      tag_39\n      swap5\n      swap4\n      swap3\n      swap2\n      swap1\n      tag_20\n      jump\t// in\n    tag_39:\n      mload(0x40)\n      dup1\n      swap2\n      sub\n      swap1\n      return\n        /* \"contracts/SimpleStorage.sol\":635:909  function addPerson(string memory _name, uint256 _age, bool _isActive, address _walletAddress) public {... */\n    tag_14:\n        /* \"contracts/SimpleStorage.sol\":746:769  Person memory newPerson */\n      0x00\n        /* \"contracts/SimpleStorage.sol\":772:818  Person(_name, _age, _isActive, _walletAddress) */\n      mload(0x40)\n      dup1\n      0x80\n      add\n      0x40\n      mstore\n      dup1\n        /* \"contracts/SimpleStorage.sol\":779:784  _name */\n      dup7\n        /* \"contracts/SimpleStorage.sol\":772:818  Person(_name, _age, _isActive, _walletAddress) */\n      dup2\n      mstore\n      0x20\n      add\n        /* \"contracts/SimpleStorage.sol\":786:790  _age */\n      dup6\n        /* \"contracts/SimpleStorage.sol\":772:818  Person(_name, _age, _isActive, _walletAddress) */\n      dup2\n      mstore\n      0x20\n      add\n        /* \"contracts/SimpleStorage.sol\":792:801  _isActive */\n      dup5\n        /* \"contracts/SimpleStorage.sol\":772:818  Person(_name, _age, _isActive, _walletAddress) */\n      iszero\n      iszero\n      dup2\n      mstore\n      0x20\n      add\n        /* \"contracts/SimpleStorage.sol\":803:817  _walletAddress */\n      dup4\n        /* \"contracts/SimpleStorage.sol\":772:818  Person(_name, _age, _isActive, _walletAddress) */\n      0xffffffffffffffffffffffffffffffffffffffff\n      and\n      dup2\n      mstore\n      pop\n        /* \"contracts/SimpleStorage.sol\":746:818  Person memory newPerson = Person(_name, _age, _isActive, _walletAddress) */\n      swap1\n      pop\n        /* \"contracts/SimpleStorage.sol\":828:843  allUsersDetails */\n      0x05\n        /* \"contracts/SimpleStorage.sol\":849:858  newPerson */\n      dup2\n        /* \"contracts/SimpleStorage.sol\":828:859  allUsersDetails.push(newPerson) */\n      swap1\n      dup1\n      0x01\n      dup2\n      sload\n      add\n      dup1\n      dup3\n      sstore\n      dup1\n      swap2\n      pop\n      pop\n      0x01\n      swap1\n      sub\n      swap1\n      0x00\n      mstore\n      keccak256(0x00, 0x20)\n      swap1\n      0x03\n      mul\n      add\n      0x00\n      swap1\n      swap2\n      swap1\n      swap2\n      swap1\n      swap2\n      pop\n      0x00\n      dup3\n      add\n      mload\n      dup2\n      0x00\n      add\n      swap1\n      dup2\n      tag_42\n      swap2\n      swap1\n      tag_43\n      jump\t// in\n    tag_42:\n      pop\n      0x20\n      dup3\n      add\n      mload\n      dup2\n      0x01\n      add\n      sstore\n      0x40\n      dup3\n      add\n      mload\n      dup2\n      0x02\n      add\n      exp(0x0100, 0x00)\n      dup2\n      sload\n      dup2\n      0xff\n      mul\n      not\n      and\n      swap1\n      dup4\n      iszero\n      iszero\n      mul\n      or\n      swap1\n      sstore\n      pop\n      0x60\n      dup3\n      add\n      mload\n      dup2\n      0x02\n      add\n      exp(0x0100, 0x01)\n      dup2\n      sload\n      dup2\n      0xffffffffffffffffffffffffffffffffffffffff\n      mul\n      not\n      and\n      swap1\n      dup4\n      0xffffffffffffffffffffffffffffffffffffffff\n      and\n      mul\n      or\n      swap1\n      sstore\n      pop\n      pop\n      pop\n        /* \"contracts/SimpleStorage.sol\":893:902  _isActive */\n      dup3\n        /* \"contracts/SimpleStorage.sol\":869:883  nameToIsActive */\n      0x01\n        /* \"contracts/SimpleStorage.sol\":884:889  _name */\n      dup7\n        /* \"contracts/SimpleStorage.sol\":869:890  nameToIsActive[_name] */\n      mload(0x40)\n      tag_44\n      swap2\n      swap1\n      tag_45\n      jump\t// in\n    tag_44:\n      swap1\n      dup2\n      mstore\n      0x20\n      add\n      mload(0x40)\n      dup1\n      swap2\n      sub\n      swap1\n      keccak256\n      0x00\n        /* \"contracts/SimpleStorage.sol\":869:902  nameToIsActive[_name] = _isActive */\n      0x0100\n      exp\n      dup2\n      sload\n      dup2\n      0xff\n      mul\n      not\n      and\n      swap1\n      dup4\n      iszero\n      iszero\n      mul\n      or\n      swap1\n      sstore\n      pop\n        /* \"contracts/SimpleStorage.sol\":736:909  {... */\n      pop\n        /* \"contracts/SimpleStorage.sol\":635:909  function addPerson(string memory _name, uint256 _age, bool _isActive, address _walletAddress) public {... */\n      pop\n      pop\n      pop\n      pop\n      jump\t// out\n        /* \"contracts/SimpleStorage.sol\":472:503  Person[] public allUsersDetails */\n    tag_18:\n      0x05\n      dup2\n      dup2\n      sload\n      dup2\n      lt\n      tag_46\n      jumpi\n      0x00\n      dup1\n      revert\n    tag_46:\n      swap1\n      0x00\n      mstore\n      keccak256(0x00, 0x20)\n      swap1\n      0x03\n      mul\n      add\n      0x00\n      swap2\n      pop\n      swap1\n      pop\n      dup1\n      0x00\n      add\n      dup1\n      sload\n      tag_48\n      swap1\n      tag_49\n      jump\t// in\n    tag_48:\n      dup1\n      0x1f\n      add\n      0x20\n      dup1\n      swap2\n      div\n      mul\n      0x20\n      add\n      mload(0x40)\n      swap1\n      dup2\n      add\n      0x40\n      mstore\n      dup1\n      swap3\n      swap2\n      swap1\n      dup2\n      dup2\n      mstore\n      0x20\n      add\n      dup3\n      dup1\n      sload\n      tag_50\n      swap1\n      tag_49\n      jump\t// in\n    tag_50:\n      dup1\n      iszero\n      tag_51\n      jumpi\n      dup1\n      0x1f\n      lt\n      tag_52\n      jumpi\n      0x0100\n      dup1\n      dup4\n      sload\n      div\n      mul\n      dup4\n      mstore\n      swap2\n      0x20\n      add\n      swap2\n      jump(tag_51)\n    tag_52:\n      dup3\n      add\n      swap2\n      swap1\n      0x00\n      mstore\n      keccak256(0x00, 0x20)\n      swap1\n    tag_53:\n      dup2\n      sload\n      dup2\n      mstore\n      swap1\n      0x01\n      add\n      swap1\n      0x20\n      add\n      dup1\n      dup4\n      gt\n      tag_53\n      jumpi\n      dup3\n      swap1\n      sub\n      0x1f\n      and\n      dup3\n      add\n      swap2\n    tag_51:\n      pop\n      pop\n      pop\n      pop\n      pop\n      swap1\n      dup1\n      0x01\n      add\n      sload\n      swap1\n      dup1\n      0x02\n      add\n      0x00\n      swap1\n      sload\n      swap1\n      0x0100\n      exp\n      swap1\n      div\n      0xff\n      and\n      swap1\n      dup1\n      0x02\n      add\n      0x01\n      swap1\n      sload\n      swap1\n      0x0100\n      exp\n      swap1\n      div\n      0xffffffffffffffffffffffffffffffffffffffff\n      and\n      swap1\n      pop\n      dup5\n      jump\t// out\n        /* \"contracts/SimpleStorage.sol\":915:1004  function retrieve() public view returns (uint256) {... */\n    tag_22:\n        /* \"contracts/SimpleStorage.sol\":956:963  uint256 */\n      0x00\n        /* \"contracts/SimpleStorage.sol\":982:997  favouriteNumber */\n      dup1\n      sload\n        /* \"contracts/SimpleStorage.sol\":975:997  return favouriteNumber */\n      swap1\n      pop\n        /* \"contracts/SimpleStorage.sol\":915:1004  function retrieve() public view returns (uint256) {... */\n      swap1\n      jump\t// out\n        /* \"contracts/SimpleStorage.sol\":206:236  uint256 public favouriteNumber */\n    tag_26:\n      sload(0x00)\n      dup2\n      jump\t// out\n        /* \"contracts/SimpleStorage.sol\":510:629  function store(uint256 _favouriteNumber) public {... */\n    tag_30:\n        /* \"contracts/SimpleStorage.sol\":586:602  _favouriteNumber */\n      dup1\n        /* \"contracts/SimpleStorage.sol\":568:583  favouriteNumber */\n      0x00\n        /* \"contracts/SimpleStorage.sol\":568:602  favouriteNumber = _favouriteNumber */\n      dup2\n      swap1\n      sstore\n      pop\n        /* \"contracts/SimpleStorage.sol\":612:622  retrieve() */\n      tag_56\n        /* \"contracts/SimpleStorage.sol\":612:620  retrieve */\n      tag_22\n        /* \"contracts/SimpleStorage.sol\":612:622  retrieve() */\n      jump\t// in\n    tag_56:\n      pop\n        /* \"contracts/SimpleStorage.sol\":510:629  function store(uint256 _favouriteNumber) public {... */\n      pop\n      jump\t// out\n        /* \"contracts/SimpleStorage.sol\":243:288  mapping(string => bool) public nameToIsActive */\n    tag_34:\n      0x01\n      dup2\n      dup1\n      mload\n      0x20\n      dup2\n      add\n      dup3\n      add\n      dup1\n      mload\n      dup5\n      dup3\n      mstore\n      0x20\n      dup4\n      add\n      0x20\n      dup6\n      add\n      keccak256\n      dup2\n      dup4\n      mstore\n      dup1\n      swap6\n      pop\n      pop\n      pop\n      pop\n      pop\n      pop\n      0x00\n      swap2\n      pop\n      sload\n      swap1\n      0x0100\n      exp\n      swap1\n      div\n      0xff\n      and\n      dup2\n      jump\t// out\n        /* \"contracts/SimpleStorage.sol\":295:465  Person public pat = Person({... */\n    tag_38:\n      0x02\n      dup1\n      0x00\n      add\n      dup1\n      sload\n      tag_57\n      swap1\n      tag_49\n      jump\t// in\n    tag_57:\n      dup1\n      0x1f\n      add\n      0x20\n      dup1\n      swap2\n      div\n      mul\n      0x20\n      add\n      mload(0x40)\n      swap1\n      dup2\n      add\n      0x40\n      mstore\n      dup1\n      swap3\n      swap2\n      swap1\n      dup2\n      dup2\n      mstore\n      0x20\n      add\n      dup3\n      dup1\n      sload\n      tag_58\n      swap1\n      tag_49\n      jump\t// in\n    tag_58:\n      dup1\n      iszero\n      tag_59\n      jumpi\n      dup1\n      0x1f\n      lt\n      tag_60\n      jumpi\n      0x0100\n      dup1\n      dup4\n      sload\n      div\n      mul\n      dup4\n      mstore\n      swap2\n      0x20\n      add\n      swap2\n      jump(tag_59)\n    tag_60:\n      dup3\n      add\n      swap2\n      swap1\n      0x00\n      mstore\n      keccak256(0x00, 0x20)\n      swap1\n    tag_61:\n      dup2\n      sload\n      dup2\n      mstore\n      swap1\n      0x01\n      add\n      swap1\n      0x20\n      add\n      dup1\n      dup4\n      gt\n      tag_61\n      jumpi\n      dup3\n      swap1\n      sub\n      0x1f\n      and\n      dup3\n      add\n      swap2\n    tag_59:\n      pop\n      pop\n      pop\n      pop\n      pop\n      swap1\n      dup1\n      0x01\n      add\n      sload\n      swap1\n      dup1\n      0x02\n      add\n      0x00\n      swap1\n      sload\n      swap1\n      0x0100\n      exp\n      swap1\n      div\n      0xff\n      and\n      swap1\n      dup1\n      0x02\n      add\n      0x01\n      swap1\n      sload\n      swap1\n      0x0100\n      exp\n      swap1\n      div\n      0xffffffffffffffffffffffffffffffffffffffff\n      and\n      swap1\n      pop\n      dup5\n      jump\t// out\n        /* \"#utility.yul\":7:82   */\n    tag_62:\n        /* \"#utility.yul\":40:46   */\n      0x00\n        /* \"#utility.yul\":73:75   */\n      0x40\n        /* \"#utility.yul\":67:76   */\n      mload\n        /* \"#utility.yul\":57:76   */\n      swap1\n      pop\n        /* \"#utility.yul\":7:82   */\n      swap1\n      jump\t// out\n        /* \"#utility.yul\":88:205   */\n    tag_63:\n        /* \"#utility.yul\":197:198   */\n      0x00\n        /* \"#utility.yul\":194:195   */\n      dup1\n        /* \"#utility.yul\":187:199   */\n      revert\n        /* \"#utility.yul\":211:328   */\n    tag_64:\n        /* \"#utility.yul\":320:321   */\n      0x00\n        /* \"#utility.yul\":317:318   */\n      dup1\n        /* \"#utility.yul\":310:322   */\n      revert\n        /* \"#utility.yul\":334:451   */\n    tag_65:\n        /* \"#utility.yul\":443:444   */\n      0x00\n        /* \"#utility.yul\":440:441   */\n      dup1\n        /* \"#utility.yul\":433:445   */\n      revert\n        /* \"#utility.yul\":457:574   */\n    tag_66:\n        /* \"#utility.yul\":566:567   */\n      0x00\n        /* \"#utility.yul\":563:564   */\n      dup1\n        /* \"#utility.yul\":556:568   */\n      revert\n        /* \"#utility.yul\":580:682   */\n    tag_67:\n        /* \"#utility.yul\":621:627   */\n      0x00\n        /* \"#utility.yul\":672:674   */\n      0x1f\n        /* \"#utility.yul\":668:675   */\n      not\n        /* \"#utility.yul\":663:665   */\n      0x1f\n        /* \"#utility.yul\":656:661   */\n      dup4\n        /* \"#utility.yul\":652:666   */\n      add\n        /* \"#utility.yul\":648:676   */\n      and\n        /* \"#utility.yul\":638:676   */\n      swap1\n      pop\n        /* \"#utility.yul\":580:682   */\n      swap2\n      swap1\n      pop\n      jump\t// out\n        /* \"#utility.yul\":688:868   */\n    tag_68:\n        /* \"#utility.yul\":736:813   */\n      0x4e487b7100000000000000000000000000000000000000000000000000000000\n        /* \"#utility.yul\":733:734   */\n      0x00\n        /* \"#utility.yul\":726:814   */\n      mstore\n        /* \"#utility.yul\":833:837   */\n      0x41\n        /* \"#utility.yul\":830:831   */\n      0x04\n        /* \"#utility.yul\":823:838   */\n      mstore\n        /* \"#utility.yul\":857:861   */\n      0x24\n        /* \"#utility.yul\":854:855   */\n      0x00\n        /* \"#utility.yul\":847:862   */\n      revert\n        /* \"#utility.yul\":874:1155   */\n    tag_69:\n        /* \"#utility.yul\":957:984   */\n      tag_119\n        /* \"#utility.yul\":979:983   */\n      dup3\n        /* \"#utility.yul\":957:984   */\n      tag_67\n      jump\t// in\n    tag_119:\n        /* \"#utility.yul\":949:955   */\n      dup2\n        /* \"#utility.yul\":945:985   */\n      add\n        /* \"#utility.yul\":1087:1093   */\n      dup2\n        /* \"#utility.yul\":1075:1085   */\n      dup2\n        /* \"#utility.yul\":1072:1094   */\n      lt\n        /* \"#utility.yul\":1051:1069   */\n      0xffffffffffffffff\n        /* \"#utility.yul\":1039:1049   */\n      dup3\n        /* \"#utility.yul\":1036:1070   */\n      gt\n        /* \"#utility.yul\":1033:1095   */\n      or\n        /* \"#utility.yul\":1030:1118   */\n      iszero\n      tag_120\n      jumpi\n        /* \"#utility.yul\":1098:1116   */\n      tag_121\n      tag_68\n      jump\t// in\n    tag_121:\n        /* \"#utility.yul\":1030:1118   */\n    tag_120:\n        /* \"#utility.yul\":1138:1148   */\n      dup1\n        /* \"#utility.yul\":1134:1136   */\n      0x40\n        /* \"#utility.yul\":1127:1149   */\n      mstore\n        /* \"#utility.yul\":917:1155   */\n      pop\n        /* \"#utility.yul\":874:1155   */\n      pop\n      pop\n      jump\t// out\n        /* \"#utility.yul\":1161:1290   */\n    tag_70:\n        /* \"#utility.yul\":1195:1201   */\n      0x00\n        /* \"#utility.yul\":1222:1242   */\n      tag_123\n      tag_62\n      jump\t// in\n    tag_123:\n        /* \"#utility.yul\":1212:1242   */\n      swap1\n      pop\n        /* \"#utility.yul\":1251:1284   */\n      tag_124\n        /* \"#utility.yul\":1279:1283   */\n      dup3\n        /* \"#utility.yul\":1271:1277   */\n      dup3\n        /* \"#utility.yul\":1251:1284   */\n      tag_69\n      jump\t// in\n    tag_124:\n        /* \"#utility.yul\":1161:1290   */\n      swap2\n      swap1\n      pop\n      jump\t// out\n        /* \"#utility.yul\":1296:1604   */\n    tag_71:\n        /* \"#utility.yul\":1358:1362   */\n      0x00\n        /* \"#utility.yul\":1448:1466   */\n      0xffffffffffffffff\n        /* \"#utility.yul\":1440:1446   */\n      dup3\n        /* \"#utility.yul\":1437:1467   */\n      gt\n        /* \"#utility.yul\":1434:1490   */\n      iszero\n      tag_126\n      jumpi\n        /* \"#utility.yul\":1470:1488   */\n      tag_127\n      tag_68\n      jump\t// in\n    tag_127:\n        /* \"#utility.yul\":1434:1490   */\n    tag_126:\n        /* \"#utility.yul\":1508:1537   */\n      tag_128\n        /* \"#utility.yul\":1530:1536   */\n      dup3\n        /* \"#utility.yul\":1508:1537   */\n      tag_67\n      jump\t// in\n    tag_128:\n        /* \"#utility.yul\":1500:1537   */\n      swap1\n      pop\n        /* \"#utility.yul\":1592:1596   */\n      0x20\n        /* \"#utility.yul\":1586:1590   */\n      dup2\n        /* \"#utility.yul\":1582:1597   */\n      add\n        /* \"#utility.yul\":1574:1597   */\n      swap1\n      pop\n        /* \"#utility.yul\":1296:1604   */\n      swap2\n      swap1\n      pop\n      jump\t// out\n        /* \"#utility.yul\":1610:1758   */\n    tag_72:\n        /* \"#utility.yul\":1708:1714   */\n      dup3\n        /* \"#utility.yul\":1703:1706   */\n      dup2\n        /* \"#utility.yul\":1698:1701   */\n      dup4\n        /* \"#utility.yul\":1685:1715   */\n      calldatacopy\n        /* \"#utility.yul\":1749:1750   */\n      0x00\n        /* \"#utility.yul\":1740:1746   */\n      dup4\n        /* \"#utility.yul\":1735:1738   */\n      dup4\n        /* \"#utility.yul\":1731:1747   */\n      add\n        /* \"#utility.yul\":1724:1751   */\n      mstore\n        /* \"#utility.yul\":1610:1758   */\n      pop\n      pop\n      pop\n      jump\t// out\n        /* \"#utility.yul\":1764:2189   */\n    tag_73:\n        /* \"#utility.yul\":1842:1847   */\n      0x00\n        /* \"#utility.yul\":1867:1933   */\n      tag_131\n        /* \"#utility.yul\":1883:1932   */\n      tag_132\n        /* \"#utility.yul\":1925:1931   */\n      dup5\n        /* \"#utility.yul\":1883:1932   */\n      tag_71\n      jump\t// in\n    tag_132:\n        /* \"#utility.yul\":1867:1933   */\n      tag_70\n      jump\t// in\n    tag_131:\n        /* \"#utility.yul\":1858:1933   */\n      swap1\n      pop\n        /* \"#utility.yul\":1956:1962   */\n      dup3\n        /* \"#utility.yul\":1949:1954   */\n      dup2\n        /* \"#utility.yul\":1942:1963   */\n      mstore\n        /* \"#utility.yul\":1994:1998   */\n      0x20\n        /* \"#utility.yul\":1987:1992   */\n      dup2\n        /* \"#utility.yul\":1983:1999   */\n      add\n        /* \"#utility.yul\":2032:2035   */\n      dup5\n        /* \"#utility.yul\":2023:2029   */\n      dup5\n        /* \"#utility.yul\":2018:2021   */\n      dup5\n        /* \"#utility.yul\":2014:2030   */\n      add\n        /* \"#utility.yul\":2011:2036   */\n      gt\n        /* \"#utility.yul\":2008:2120   */\n      iszero\n      tag_133\n      jumpi\n        /* \"#utility.yul\":2039:2118   */\n      tag_134\n      tag_66\n      jump\t// in\n    tag_134:\n        /* \"#utility.yul\":2008:2120   */\n    tag_133:\n        /* \"#utility.yul\":2129:2183   */\n      tag_135\n        /* \"#utility.yul\":2176:2182   */\n      dup5\n        /* \"#utility.yul\":2171:2174   */\n      dup3\n        /* \"#utility.yul\":2166:2169   */\n      dup6\n        /* \"#utility.yul\":2129:2183   */\n      tag_72\n      jump\t// in\n    tag_135:\n        /* \"#utility.yul\":1848:2189   */\n      pop\n        /* \"#utility.yul\":1764:2189   */\n      swap4\n      swap3\n      pop\n      pop\n      pop\n      jump\t// out\n        /* \"#utility.yul\":2209:2549   */\n    tag_74:\n        /* \"#utility.yul\":2265:2270   */\n      0x00\n        /* \"#utility.yul\":2314:2317   */\n      dup3\n        /* \"#utility.yul\":2307:2311   */\n      0x1f\n        /* \"#utility.yul\":2299:2305   */\n      dup4\n        /* \"#utility.yul\":2295:2312   */\n      add\n        /* \"#utility.yul\":2291:2318   */\n      slt\n        /* \"#utility.yul\":2281:2403   */\n      tag_137\n      jumpi\n        /* \"#utility.yul\":2322:2401   */\n      tag_138\n      tag_65\n      jump\t// in\n    tag_138:\n        /* \"#utility.yul\":2281:2403   */\n    tag_137:\n        /* \"#utility.yul\":2439:2445   */\n      dup2\n        /* \"#utility.yul\":2426:2446   */\n      calldataload\n        /* \"#utility.yul\":2464:2543   */\n      tag_139\n        /* \"#utility.yul\":2539:2542   */\n      dup5\n        /* \"#utility.yul\":2531:2537   */\n      dup3\n        /* \"#utility.yul\":2524:2528   */\n      0x20\n        /* \"#utility.yul\":2516:2522   */\n      dup7\n        /* \"#utility.yul\":2512:2529   */\n      add\n        /* \"#utility.yul\":2464:2543   */\n      tag_73\n      jump\t// in\n    tag_139:\n        /* \"#utility.yul\":2455:2543   */\n      swap2\n      pop\n        /* \"#utility.yul\":2271:2549   */\n      pop\n        /* \"#utility.yul\":2209:2549   */\n      swap3\n      swap2\n      pop\n      pop\n      jump\t// out\n        /* \"#utility.yul\":2555:2632   */\n    tag_75:\n        /* \"#utility.yul\":2592:2599   */\n      0x00\n        /* \"#utility.yul\":2621:2626   */\n      dup2\n        /* \"#utility.yul\":2610:2626   */\n      swap1\n      pop\n        /* \"#utility.yul\":2555:2632   */\n      swap2\n      swap1\n      pop\n      jump\t// out\n        /* \"#utility.yul\":2638:2760   */\n    tag_76:\n        /* \"#utility.yul\":2711:2735   */\n      tag_142\n        /* \"#utility.yul\":2729:2734   */\n      dup2\n        /* \"#utility.yul\":2711:2735   */\n      tag_75\n      jump\t// in\n    tag_142:\n        /* \"#utility.yul\":2704:2709   */\n      dup2\n        /* \"#utility.yul\":2701:2736   */\n      eq\n        /* \"#utility.yul\":2691:2754   */\n      tag_143\n      jumpi\n        /* \"#utility.yul\":2750:2751   */\n      0x00\n        /* \"#utility.yul\":2747:2748   */\n      dup1\n        /* \"#utility.yul\":2740:2752   */\n      revert\n        /* \"#utility.yul\":2691:2754   */\n    tag_143:\n        /* \"#utility.yul\":2638:2760   */\n      pop\n      jump\t// out\n        /* \"#utility.yul\":2766:2905   */\n    tag_77:\n        /* \"#utility.yul\":2812:2817   */\n      0x00\n        /* \"#utility.yul\":2850:2856   */\n      dup2\n        /* \"#utility.yul\":2837:2857   */\n      calldataload\n        /* \"#utility.yul\":2828:2857   */\n      swap1\n      pop\n        /* \"#utility.yul\":2866:2899   */\n      tag_145\n        /* \"#utility.yul\":2893:2898   */\n      dup2\n        /* \"#utility.yul\":2866:2899   */\n      tag_76\n      jump\t// in\n    tag_145:\n        /* \"#utility.yul\":2766:2905   */\n      swap3\n      swap2\n      pop\n      pop\n      jump\t// out\n        /* \"#utility.yul\":2911:3001   */\n    tag_78:\n        /* \"#utility.yul\":2945:2952   */\n      0x00\n        /* \"#utility.yul\":2988:2993   */\n      dup2\n        /* \"#utility.yul\":2981:2994   */\n      iszero\n        /* \"#utility.yul\":2974:2995   */\n      iszero\n        /* \"#utility.yul\":2963:2995   */\n      swap1\n      pop\n        /* \"#utility.yul\":2911:3001   */\n      swap2\n      swap1\n      pop\n      jump\t// out\n        /* \"#utility.yul\":3007:3123   */\n    tag_79:\n        /* \"#utility.yul\":3077:3098   */\n      tag_148\n        /* \"#utility.yul\":3092:3097   */\n      dup2\n        /* \"#utility.yul\":3077:3098   */\n      tag_78\n      jump\t// in\n    tag_148:\n        /* \"#utility.yul\":3070:3075   */\n      dup2\n        /* \"#utility.yul\":3067:3099   */\n      eq\n        /* \"#utility.yul\":3057:3117   */\n      tag_149\n      jumpi\n        /* \"#utility.yul\":3113:3114   */\n      0x00\n        /* \"#utility.yul\":3110:3111   */\n      dup1\n        /* \"#utility.yul\":3103:3115   */\n      revert\n        /* \"#utility.yul\":3057:3117   */\n    tag_149:\n        /* \"#utility.yul\":3007:3123   */\n      pop\n      jump\t// out\n        /* \"#utility.yul\":3129:3262   */\n    tag_80:\n        /* \"#utility.yul\":3172:3177   */\n      0x00\n        /* \"#utility.yul\":3210:3216   */\n      dup2\n        /* \"#utility.yul\":3197:3217   */\n      calldataload\n        /* \"#utility.yul\":3188:3217   */\n      swap1\n      pop\n        /* \"#utility.yul\":3226:3256   */\n      tag_151\n        /* \"#utility.yul\":3250:3255   */\n      dup2\n        /* \"#utility.yul\":3226:3256   */\n      tag_79\n      jump\t// in\n    tag_151:\n        /* \"#utility.yul\":3129:3262   */\n      swap3\n      swap2\n      pop\n      pop\n      jump\t// out\n        /* \"#utility.yul\":3268:3394   */\n    tag_81:\n        /* \"#utility.yul\":3305:3312   */\n      0x00\n        /* \"#utility.yul\":3345:3387   */\n      0xffffffffffffffffffffffffffffffffffffffff\n        /* \"#utility.yul\":3338:3343   */\n      dup3\n        /* \"#utility.yul\":3334:3388   */\n      and\n        /* \"#utility.yul\":3323:3388   */\n      swap1\n      pop\n        /* \"#utility.yul\":3268:3394   */\n      swap2\n      swap1\n      pop\n      jump\t// out\n        /* \"#utility.yul\":3400:3496   */\n    tag_82:\n        /* \"#utility.yul\":3437:3444   */\n      0x00\n        /* \"#utility.yul\":3466:3490   */\n      tag_154\n        /* \"#utility.yul\":3484:3489   */\n      dup3\n        /* \"#utility.yul\":3466:3490   */\n      tag_81\n      jump\t// in\n    tag_154:\n        /* \"#utility.yul\":3455:3490   */\n      swap1\n      pop\n        /* \"#utility.yul\":3400:3496   */\n      swap2\n      swap1\n      pop\n      jump\t// out\n        /* \"#utility.yul\":3502:3624   */\n    tag_83:\n        /* \"#utility.yul\":3575:3599   */\n      tag_156\n        /* \"#utility.yul\":3593:3598   */\n      dup2\n        /* \"#utility.yul\":3575:3599   */\n      tag_82\n      jump\t// in\n    tag_156:\n        /* \"#utility.yul\":3568:3573   */\n      dup2\n        /* \"#utility.yul\":3565:3600   */\n      eq\n        /* \"#utility.yul\":3555:3618   */\n      tag_157\n      jumpi\n        /* \"#utility.yul\":3614:3615   */\n      0x00\n        /* \"#utility.yul\":3611:3612   */\n      dup1\n        /* \"#utility.yul\":3604:3616   */\n      revert\n        /* \"#utility.yul\":3555:3618   */\n    tag_157:\n        /* \"#utility.yul\":3502:3624   */\n      pop\n      jump\t// out\n        /* \"#utility.yul\":3630:3769   */\n    tag_84:\n        /* \"#utility.yul\":3676:3681   */\n      0x00\n        /* \"#utility.yul\":3714:3720   */\n      dup2\n        /* \"#utility.yul\":3701:3721   */\n      calldataload\n        /* \"#utility.yul\":3692:3721   */\n      swap1\n      pop\n        /* \"#utility.yul\":3730:3763   */\n      tag_159\n        /* \"#utility.yul\":3757:3762   */\n      dup2\n        /* \"#utility.yul\":3730:3763   */\n      tag_83\n      jump\t// in\n    tag_159:\n        /* \"#utility.yul\":3630:3769   */\n      swap3\n      swap2\n      pop\n      pop\n      jump\t// out\n        /* \"#utility.yul\":3775:4714   */\n    tag_13:\n        /* \"#utility.yul\":3868:3874   */\n      0x00\n        /* \"#utility.yul\":3876:3882   */\n      dup1\n        /* \"#utility.yul\":3884:3890   */\n      0x00\n        /* \"#utility.yul\":3892:3898   */\n      dup1\n        /* \"#utility.yul\":3941:3944   */\n      0x80\n        /* \"#utility.yul\":3929:3938   */\n      dup6\n        /* \"#utility.yul\":3920:3927   */\n      dup8\n        /* \"#utility.yul\":3916:3939   */\n      sub\n        /* \"#utility.yul\":3912:3945   */\n      slt\n        /* \"#utility.yul\":3909:4029   */\n      iszero\n      tag_161\n      jumpi\n        /* \"#utility.yul\":3948:4027   */\n      tag_162\n      tag_63\n      jump\t// in\n    tag_162:\n        /* \"#utility.yul\":3909:4029   */\n    tag_161:\n        /* \"#utility.yul\":4096:4097   */\n      0x00\n        /* \"#utility.yul\":4085:4094   */\n      dup6\n        /* \"#utility.yul\":4081:4098   */\n      add\n        /* \"#utility.yul\":4068:4099   */\n      calldataload\n        /* \"#utility.yul\":4126:4144   */\n      0xffffffffffffffff\n        /* \"#utility.yul\":4118:4124   */\n      dup2\n        /* \"#utility.yul\":4115:4145   */\n      gt\n        /* \"#utility.yul\":4112:4229   */\n      iszero\n      tag_163\n      jumpi\n        /* \"#utility.yul\":4148:4227   */\n      tag_164\n      tag_64\n      jump\t// in\n    tag_164:\n        /* \"#utility.yul\":4112:4229   */\n    tag_163:\n        /* \"#utility.yul\":4253:4316   */\n      tag_165\n        /* \"#utility.yul\":4308:4315   */\n      dup8\n        /* \"#utility.yul\":4299:4305   */\n      dup3\n        /* \"#utility.yul\":4288:4297   */\n      dup9\n        /* \"#utility.yul\":4284:4306   */\n      add\n        /* \"#utility.yul\":4253:4316   */\n      tag_74\n      jump\t// in\n    tag_165:\n        /* \"#utility.yul\":4243:4316   */\n      swap5\n      pop\n        /* \"#utility.yul\":4039:4326   */\n      pop\n        /* \"#utility.yul\":4365:4367   */\n      0x20\n        /* \"#utility.yul\":4391:4444   */\n      tag_166\n        /* \"#utility.yul\":4436:4443   */\n      dup8\n        /* \"#utility.yul\":4427:4433   */\n      dup3\n        /* \"#utility.yul\":4416:4425   */\n      dup9\n        /* \"#utility.yul\":4412:4434   */\n      add\n        /* \"#utility.yul\":4391:4444   */\n      tag_77\n      jump\t// in\n    tag_166:\n        /* \"#utility.yul\":4381:4444   */\n      swap4\n      pop\n        /* \"#utility.yul\":4336:4454   */\n      pop\n        /* \"#utility.yul\":4493:4495   */\n      0x40\n        /* \"#utility.yul\":4519:4569   */\n      tag_167\n        /* \"#utility.yul\":4561:4568   */\n      dup8\n        /* \"#utility.yul\":4552:4558   */\n      dup3\n        /* \"#utility.yul\":4541:4550   */\n      dup9\n        /* \"#utility.yul\":4537:4559   */\n      add\n        /* \"#utility.yul\":4519:4569   */\n      tag_80\n      jump\t// in\n    tag_167:\n        /* \"#utility.yul\":4509:4569   */\n      swap3\n      pop\n        /* \"#utility.yul\":4464:4579   */\n      pop\n        /* \"#utility.yul\":4618:4620   */\n      0x60\n        /* \"#utility.yul\":4644:4697   */\n      tag_168\n        /* \"#utility.yul\":4689:4696   */\n      dup8\n        /* \"#utility.yul\":4680:4686   */\n      dup3\n        /* \"#utility.yul\":4669:4678   */\n      dup9\n        /* \"#utility.yul\":4665:4687   */\n      add\n        /* \"#utility.yul\":4644:4697   */\n      tag_84\n      jump\t// in\n    tag_168:\n        /* \"#utility.yul\":4634:4697   */\n      swap2\n      pop\n        /* \"#utility.yul\":4589:4707   */\n      pop\n        /* \"#utility.yul\":3775:4714   */\n      swap3\n      swap6\n      swap2\n      swap5\n      pop\n      swap3\n      pop\n      jump\t// out\n        /* \"#utility.yul\":4720:5049   */\n    tag_17:\n        /* \"#utility.yul\":4779:4785   */\n      0x00\n        /* \"#utility.yul\":4828:4830   */\n      0x20\n        /* \"#utility.yul\":4816:4825   */\n      dup3\n        /* \"#utility.yul\":4807:4814   */\n      dup5\n        /* \"#utility.yul\":4803:4826   */\n      sub\n        /* \"#utility.yul\":4799:4831   */\n      slt\n        /* \"#utility.yul\":4796:4915   */\n      iszero\n      tag_170\n      jumpi\n        /* \"#utility.yul\":4834:4913   */\n      tag_171\n      tag_63\n      jump\t// in\n    tag_171:\n        /* \"#utility.yul\":4796:4915   */\n    tag_170:\n        /* \"#utility.yul\":4954:4955   */\n      0x00\n        /* \"#utility.yul\":4979:5032   */\n      tag_172\n        /* \"#utility.yul\":5024:5031   */\n      dup5\n        /* \"#utility.yul\":5015:5021   */\n      dup3\n        /* \"#utility.yul\":5004:5013   */\n      dup6\n        /* \"#utility.yul\":5000:5022   */\n      add\n        /* \"#utility.yul\":4979:5032   */\n      tag_77\n      jump\t// in\n    tag_172:\n        /* \"#utility.yul\":4969:5032   */\n      swap2\n      pop\n        /* \"#utility.yul\":4925:5042   */\n      pop\n        /* \"#utility.yul\":4720:5049   */\n      swap3\n      swap2\n      pop\n      pop\n      jump\t// out\n        /* \"#utility.yul\":5055:5154   */\n    tag_85:\n        /* \"#utility.yul\":5107:5113   */\n      0x00\n        /* \"#utility.yul\":5141:5146   */\n      dup2\n        /* \"#utility.yul\":5135:5147   */\n      mload\n        /* \"#utility.yul\":5125:5147   */\n      swap1\n      pop\n        /* \"#utility.yul\":5055:5154   */\n      swap2\n      swap1\n      pop\n      jump\t// out\n        /* \"#utility.yul\":5160:5329   */\n    tag_86:\n        /* \"#utility.yul\":5244:5255   */\n      0x00\n        /* \"#utility.yul\":5278:5284   */\n      dup3\n        /* \"#utility.yul\":5273:5276   */\n      dup3\n        /* \"#utility.yul\":5266:5285   */\n      mstore\n        /* \"#utility.yul\":5318:5322   */\n      0x20\n        /* \"#utility.yul\":5313:5316   */\n      dup3\n        /* \"#utility.yul\":5309:5323   */\n      add\n        /* \"#utility.yul\":5294:5323   */\n      swap1\n      pop\n        /* \"#utility.yul\":5160:5329   */\n      swap3\n      swap2\n      pop\n      pop\n      jump\t// out\n        /* \"#utility.yul\":5335:5474   */\n    tag_87:\n        /* \"#utility.yul\":5424:5430   */\n      dup3\n        /* \"#utility.yul\":5419:5422   */\n      dup2\n        /* \"#utility.yul\":5414:5417   */\n      dup4\n        /* \"#utility.yul\":5408:5431   */\n      mcopy\n        /* \"#utility.yul\":5465:5466   */\n      0x00\n        /* \"#utility.yul\":5456:5462   */\n      dup4\n        /* \"#utility.yul\":5451:5454   */\n      dup4\n        /* \"#utility.yul\":5447:5463   */\n      add\n        /* \"#utility.yul\":5440:5467   */\n      mstore\n        /* \"#utility.yul\":5335:5474   */\n      pop\n      pop\n      pop\n      jump\t// out\n        /* \"#utility.yul\":5480:5857   */\n    tag_88:\n        /* \"#utility.yul\":5568:5571   */\n      0x00\n        /* \"#utility.yul\":5596:5635   */\n      tag_177\n        /* \"#utility.yul\":5629:5634   */\n      dup3\n        /* \"#utility.yul\":5596:5635   */\n      tag_85\n      jump\t// in\n    tag_177:\n        /* \"#utility.yul\":5651:5722   */\n      tag_178\n        /* \"#utility.yul\":5715:5721   */\n      dup2\n        /* \"#utility.yul\":5710:5713   */\n      dup6\n        /* \"#utility.yul\":5651:5722   */\n      tag_86\n      jump\t// in\n    tag_178:\n        /* \"#utility.yul\":5644:5722   */\n      swap4\n      pop\n        /* \"#utility.yul\":5731:5796   */\n      tag_179\n        /* \"#utility.yul\":5789:5795   */\n      dup2\n        /* \"#utility.yul\":5784:5787   */\n      dup6\n        /* \"#utility.yul\":5777:5781   */\n      0x20\n        /* \"#utility.yul\":5770:5775   */\n      dup7\n        /* \"#utility.yul\":5766:5782   */\n      add\n        /* \"#utility.yul\":5731:5796   */\n      tag_87\n      jump\t// in\n    tag_179:\n        /* \"#utility.yul\":5821:5850   */\n      tag_180\n        /* \"#utility.yul\":5843:5849   */\n      dup2\n        /* \"#utility.yul\":5821:5850   */\n      tag_67\n      jump\t// in\n    tag_180:\n        /* \"#utility.yul\":5816:5819   */\n      dup5\n        /* \"#utility.yul\":5812:5851   */\n      add\n        /* \"#utility.yul\":5805:5851   */\n      swap2\n      pop\n        /* \"#utility.yul\":5572:5857   */\n      pop\n        /* \"#utility.yul\":5480:5857   */\n      swap3\n      swap2\n      pop\n      pop\n      jump\t// out\n        /* \"#utility.yul\":5863:5981   */\n    tag_89:\n        /* \"#utility.yul\":5950:5974   */\n      tag_182\n        /* \"#utility.yul\":5968:5973   */\n      dup2\n        /* \"#utility.yul\":5950:5974   */\n      tag_75\n      jump\t// in\n    tag_182:\n        /* \"#utility.yul\":5945:5948   */\n      dup3\n        /* \"#utility.yul\":5938:5975   */\n      mstore\n        /* \"#utility.yul\":5863:5981   */\n      pop\n      pop\n      jump\t// out\n        /* \"#utility.yul\":5987:6096   */\n    tag_90:\n        /* \"#utility.yul\":6068:6089   */\n      tag_184\n        /* \"#utility.yul\":6083:6088   */\n      dup2\n        /* \"#utility.yul\":6068:6089   */\n      tag_78\n      jump\t// in\n    tag_184:\n        /* \"#utility.yul\":6063:6066   */\n      dup3\n        /* \"#utility.yul\":6056:6090   */\n      mstore\n        /* \"#utility.yul\":5987:6096   */\n      pop\n      pop\n      jump\t// out\n        /* \"#utility.yul\":6102:6220   */\n    tag_91:\n        /* \"#utility.yul\":6189:6213   */\n      tag_186\n        /* \"#utility.yul\":6207:6212   */\n      dup2\n        /* \"#utility.yul\":6189:6213   */\n      tag_82\n      jump\t// in\n    tag_186:\n        /* \"#utility.yul\":6184:6187   */\n      dup3\n        /* \"#utility.yul\":6177:6214   */\n      mstore\n        /* \"#utility.yul\":6102:6220   */\n      pop\n      pop\n      jump\t// out\n        /* \"#utility.yul\":6226:6858   */\n    tag_20:\n        /* \"#utility.yul\":6417:6421   */\n      0x00\n        /* \"#utility.yul\":6455:6458   */\n      0x80\n        /* \"#utility.yul\":6444:6453   */\n      dup3\n        /* \"#utility.yul\":6440:6459   */\n      add\n        /* \"#utility.yul\":6432:6459   */\n      swap1\n      pop\n        /* \"#utility.yul\":6505:6514   */\n      dup2\n        /* \"#utility.yul\":6499:6503   */\n      dup2\n        /* \"#utility.yul\":6495:6515   */\n      sub\n        /* \"#utility.yul\":6491:6492   */\n      0x00\n        /* \"#utility.yul\":6480:6489   */\n      dup4\n        /* \"#utility.yul\":6476:6493   */\n      add\n        /* \"#utility.yul\":6469:6516   */\n      mstore\n        /* \"#utility.yul\":6533:6611   */\n      tag_188\n        /* \"#utility.yul\":6606:6610   */\n      dup2\n        /* \"#utility.yul\":6597:6603   */\n      dup8\n        /* \"#utility.yul\":6533:6611   */\n      tag_88\n      jump\t// in\n    tag_188:\n        /* \"#utility.yul\":6525:6611   */\n      swap1\n      pop\n        /* \"#utility.yul\":6621:6693   */\n      tag_189\n        /* \"#utility.yul\":6689:6691   */\n      0x20\n        /* \"#utility.yul\":6678:6687   */\n      dup4\n        /* \"#utility.yul\":6674:6692   */\n      add\n        /* \"#utility.yul\":6665:6671   */\n      dup7\n        /* \"#utility.yul\":6621:6693   */\n      tag_89\n      jump\t// in\n    tag_189:\n        /* \"#utility.yul\":6703:6769   */\n      tag_190\n        /* \"#utility.yul\":6765:6767   */\n      0x40\n        /* \"#utility.yul\":6754:6763   */\n      dup4\n        /* \"#utility.yul\":6750:6768   */\n      add\n        /* \"#utility.yul\":6741:6747   */\n      dup6\n        /* \"#utility.yul\":6703:6769   */\n      tag_90\n      jump\t// in\n    tag_190:\n        /* \"#utility.yul\":6779:6851   */\n      tag_191\n        /* \"#utility.yul\":6847:6849   */\n      0x60\n        /* \"#utility.yul\":6836:6845   */\n      dup4\n        /* \"#utility.yul\":6832:6850   */\n      add\n        /* \"#utility.yul\":6823:6829   */\n      dup5\n        /* \"#utility.yul\":6779:6851   */\n      tag_91\n      jump\t// in\n    tag_191:\n        /* \"#utility.yul\":6226:6858   */\n      swap6\n      swap5\n      pop\n      pop\n      pop\n      pop\n      pop\n      jump\t// out\n        /* \"#utility.yul\":6864:7086   */\n    tag_24:\n        /* \"#utility.yul\":6957:6961   */\n      0x00\n        /* \"#utility.yul\":6995:6997   */\n      0x20\n        /* \"#utility.yul\":6984:6993   */\n      dup3\n        /* \"#utility.yul\":6980:6998   */\n      add\n        /* \"#utility.yul\":6972:6998   */\n      swap1\n      pop\n        /* \"#utility.yul\":7008:7079   */\n      tag_193\n        /* \"#utility.yul\":7076:7077   */\n      0x00\n        /* \"#utility.yul\":7065:7074   */\n      dup4\n        /* \"#utility.yul\":7061:7078   */\n      add\n        /* \"#utility.yul\":7052:7058   */\n      dup5\n        /* \"#utility.yul\":7008:7079   */\n      tag_89\n      jump\t// in\n    tag_193:\n        /* \"#utility.yul\":6864:7086   */\n      swap3\n      swap2\n      pop\n      pop\n      jump\t// out\n        /* \"#utility.yul\":7092:7601   */\n    tag_33:\n        /* \"#utility.yul\":7161:7167   */\n      0x00\n        /* \"#utility.yul\":7210:7212   */\n      0x20\n        /* \"#utility.yul\":7198:7207   */\n      dup3\n        /* \"#utility.yul\":7189:7196   */\n      dup5\n        /* \"#utility.yul\":7185:7208   */\n      sub\n        /* \"#utility.yul\":7181:7213   */\n      slt\n        /* \"#utility.yul\":7178:7297   */\n      iszero\n      tag_195\n      jumpi\n        /* \"#utility.yul\":7216:7295   */\n      tag_196\n      tag_63\n      jump\t// in\n    tag_196:\n        /* \"#utility.yul\":7178:7297   */\n    tag_195:\n        /* \"#utility.yul\":7364:7365   */\n      0x00\n        /* \"#utility.yul\":7353:7362   */\n      dup3\n        /* \"#utility.yul\":7349:7366   */\n      add\n        /* \"#utility.yul\":7336:7367   */\n      calldataload\n        /* \"#utility.yul\":7394:7412   */\n      0xffffffffffffffff\n        /* \"#utility.yul\":7386:7392   */\n      dup2\n        /* \"#utility.yul\":7383:7413   */\n      gt\n        /* \"#utility.yul\":7380:7497   */\n      iszero\n      tag_197\n      jumpi\n        /* \"#utility.yul\":7416:7495   */\n      tag_198\n      tag_64\n      jump\t// in\n    tag_198:\n        /* \"#utility.yul\":7380:7497   */\n    tag_197:\n        /* \"#utility.yul\":7521:7584   */\n      tag_199\n        /* \"#utility.yul\":7576:7583   */\n      dup5\n        /* \"#utility.yul\":7567:7573   */\n      dup3\n        /* \"#utility.yul\":7556:7565   */\n      dup6\n        /* \"#utility.yul\":7552:7574   */\n      add\n        /* \"#utility.yul\":7521:7584   */\n      tag_74\n      jump\t// in\n    tag_199:\n        /* \"#utility.yul\":7511:7584   */\n      swap2\n      pop\n        /* \"#utility.yul\":7307:7594   */\n      pop\n        /* \"#utility.yul\":7092:7601   */\n      swap3\n      swap2\n      pop\n      pop\n      jump\t// out\n        /* \"#utility.yul\":7607:7817   */\n    tag_36:\n        /* \"#utility.yul\":7694:7698   */\n      0x00\n        /* \"#utility.yul\":7732:7734   */\n      0x20\n        /* \"#utility.yul\":7721:7730   */\n      dup3\n        /* \"#utility.yul\":7717:7735   */\n      add\n        /* \"#utility.yul\":7709:7735   */\n      swap1\n      pop\n        /* \"#utility.yul\":7745:7810   */\n      tag_201\n        /* \"#utility.yul\":7807:7808   */\n      0x00\n        /* \"#utility.yul\":7796:7805   */\n      dup4\n        /* \"#utility.yul\":7792:7809   */\n      add\n        /* \"#utility.yul\":7783:7789   */\n      dup5\n        /* \"#utility.yul\":7745:7810   */\n      tag_90\n      jump\t// in\n    tag_201:\n        /* \"#utility.yul\":7607:7817   */\n      swap3\n      swap2\n      pop\n      pop\n      jump\t// out\n        /* \"#utility.yul\":7823:8003   */\n    tag_92:\n        /* \"#utility.yul\":7871:7948   */\n      0x4e487b7100000000000000000000000000000000000000000000000000000000\n        /* \"#utility.yul\":7868:7869   */\n      0x00\n        /* \"#utility.yul\":7861:7949   */\n      mstore\n        /* \"#utility.yul\":7968:7972   */\n      0x22\n        /* \"#utility.yul\":7965:7966   */\n      0x04\n        /* \"#utility.yul\":7958:7973   */\n      mstore\n        /* \"#utility.yul\":7992:7996   */\n      0x24\n        /* \"#utility.yul\":7989:7990   */\n      0x00\n        /* \"#utility.yul\":7982:7997   */\n      revert\n        /* \"#utility.yul\":8009:8329   */\n    tag_49:\n        /* \"#utility.yul\":8053:8059   */\n      0x00\n        /* \"#utility.yul\":8090:8091   */\n      0x02\n        /* \"#utility.yul\":8084:8088   */\n      dup3\n        /* \"#utility.yul\":8080:8092   */\n      div\n        /* \"#utility.yul\":8070:8092   */\n      swap1\n      pop\n        /* \"#utility.yul\":8137:8138   */\n      0x01\n        /* \"#utility.yul\":8131:8135   */\n      dup3\n        /* \"#utility.yul\":8127:8139   */\n      and\n        /* \"#utility.yul\":8158:8176   */\n      dup1\n        /* \"#utility.yul\":8148:8229   */\n      tag_204\n      jumpi\n        /* \"#utility.yul\":8214:8218   */\n      0x7f\n        /* \"#utility.yul\":8206:8212   */\n      dup3\n        /* \"#utility.yul\":8202:8219   */\n      and\n        /* \"#utility.yul\":8192:8219   */\n      swap2\n      pop\n        /* \"#utility.yul\":8148:8229   */\n    tag_204:\n        /* \"#utility.yul\":8276:8278   */\n      0x20\n        /* \"#utility.yul\":8268:8274   */\n      dup3\n        /* \"#utility.yul\":8265:8279   */\n      lt\n        /* \"#utility.yul\":8245:8263   */\n      dup2\n        /* \"#utility.yul\":8242:8280   */\n      sub\n        /* \"#utility.yul\":8239:8323   */\n      tag_205\n      jumpi\n        /* \"#utility.yul\":8295:8313   */\n      tag_206\n      tag_92\n      jump\t// in\n    tag_206:\n        /* \"#utility.yul\":8239:8323   */\n    tag_205:\n        /* \"#utility.yul\":8060:8329   */\n      pop\n        /* \"#utility.yul\":8009:8329   */\n      swap2\n      swap1\n      pop\n      jump\t// out\n        /* \"#utility.yul\":8335:8476   */\n    tag_93:\n        /* \"#utility.yul\":8384:8388   */\n      0x00\n        /* \"#utility.yul\":8407:8410   */\n      dup2\n        /* \"#utility.yul\":8399:8410   */\n      swap1\n      pop\n        /* \"#utility.yul\":8430:8433   */\n      dup2\n        /* \"#utility.yul\":8427:8428   */\n      0x00\n        /* \"#utility.yul\":8420:8434   */\n      mstore\n        /* \"#utility.yul\":8464:8468   */\n      0x20\n        /* \"#utility.yul\":8461:8462   */\n      0x00\n        /* \"#utility.yul\":8451:8469   */\n      keccak256\n        /* \"#utility.yul\":8443:8469   */\n      swap1\n      pop\n        /* \"#utility.yul\":8335:8476   */\n      swap2\n      swap1\n      pop\n      jump\t// out\n        /* \"#utility.yul\":8482:8575   */\n    tag_94:\n        /* \"#utility.yul\":8519:8525   */\n      0x00\n        /* \"#utility.yul\":8566:8568   */\n      0x20\n        /* \"#utility.yul\":8561:8563   */\n      0x1f\n        /* \"#utility.yul\":8554:8559   */\n      dup4\n        /* \"#utility.yul\":8550:8564   */\n      add\n        /* \"#utility.yul\":8546:8569   */\n      div\n        /* \"#utility.yul\":8536:8569   */\n      swap1\n      pop\n        /* \"#utility.yul\":8482:8575   */\n      swap2\n      swap1\n      pop\n      jump\t// out\n        /* \"#utility.yul\":8581:8688   */\n    tag_95:\n        /* \"#utility.yul\":8625:8633   */\n      0x00\n        /* \"#utility.yul\":8675:8680   */\n      dup3\n        /* \"#utility.yul\":8669:8673   */\n      dup3\n        /* \"#utility.yul\":8665:8681   */\n      shl\n        /* \"#utility.yul\":8644:8681   */\n      swap1\n      pop\n        /* \"#utility.yul\":8581:8688   */\n      swap3\n      swap2\n      pop\n      pop\n      jump\t// out\n        /* \"#utility.yul\":8694:9087   */\n    tag_96:\n        /* \"#utility.yul\":8763:8769   */\n      0x00\n        /* \"#utility.yul\":8813:8814   */\n      0x08\n        /* \"#utility.yul\":8801:8811   */\n      dup4\n        /* \"#utility.yul\":8797:8815   */\n      mul\n        /* \"#utility.yul\":8836:8933   */\n      tag_211\n        /* \"#utility.yul\":8866:8932   */\n      0xffffffffffffffffffffffffffffffffffffffffffffffffffffffffffffffff\n        /* \"#utility.yul\":8855:8864   */\n      dup3\n        /* \"#utility.yul\":8836:8933   */\n      tag_95\n      jump\t// in\n    tag_211:\n        /* \"#utility.yul\":8954:8993   */\n      tag_212\n        /* \"#utility.yul\":8984:8992   */\n      dup7\n        /* \"#utility.yul\":8973:8982   */\n      dup4\n        /* \"#utility.yul\":8954:8993   */\n      tag_95\n      jump\t// in\n    tag_212:\n        /* \"#utility.yul\":8942:8993   */\n      swap6\n      pop\n        /* \"#utility.yul\":9026:9030   */\n      dup1\n        /* \"#utility.yul\":9022:9031   */\n      not\n        /* \"#utility.yul\":9015:9020   */\n      dup5\n        /* \"#utility.yul\":9011:9032   */\n      and\n        /* \"#utility.yul\":9002:9032   */\n      swap4\n      pop\n        /* \"#utility.yul\":9075:9079   */\n      dup1\n        /* \"#utility.yul\":9065:9073   */\n      dup7\n        /* \"#utility.yul\":9061:9080   */\n      and\n        /* \"#utility.yul\":9054:9059   */\n      dup5\n        /* \"#utility.yul\":9051:9081   */\n      or\n        /* \"#utility.yul\":9041:9081   */\n      swap3\n      pop\n        /* \"#utility.yul\":8770:9087   */\n      pop\n      pop\n        /* \"#utility.yul\":8694:9087   */\n      swap4\n      swap3\n      pop\n      pop\n      pop\n      jump\t// out\n        /* \"#utility.yul\":9093:9153   */\n    tag_97:\n        /* \"#utility.yul\":9121:9124   */\n      0x00\n        /* \"#utility.yul\":9142:9147   */\n      dup2\n        /* \"#utility.yul\":9135:9147   */\n      swap1\n      pop\n        /* \"#utility.yul\":9093:9153   */\n      swap2\n      swap1\n      pop\n      jump\t// out\n        /* \"#utility.yul\":9159:9301   */\n    tag_98:\n        /* \"#utility.yul\":9209:9218   */\n      0x00\n        /* \"#utility.yul\":9242:9295   */\n      tag_215\n        /* \"#utility.yul\":9260:9294   */\n      tag_216\n        /* \"#utility.yul\":9269:9293   */\n      tag_217\n        /* \"#utility.yul\":9287:9292   */\n      dup5\n        /* \"#utility.yul\":9269:9293   */\n      tag_75\n      jump\t// in\n    tag_217:\n        /* \"#utility.yul\":9260:9294   */\n      tag_97\n      jump\t// in\n    tag_216:\n        /* \"#utility.yul\":9242:9295   */\n      tag_75\n      jump\t// in\n    tag_215:\n        /* \"#utility.yul\":9229:9295   */\n      swap1\n      pop\n        /* \"#utility.yul\":9159:9301   */\n      swap2\n      swap1\n      pop\n      jump\t// out\n        /* \"#utility.yul\":9307:9382   */\n    tag_99:\n        /* \"#utility.yul\":9350:9353   */\n      0x00\n        /* \"#utility.yul\":9371:9376   */\n      dup2\n        /* \"#utility.yul\":9364:9376   */\n      swap1\n      pop\n        /* \"#utility.yul\":9307:9382   */\n      swap2\n      swap1\n      pop\n      jump\t// out\n        /* \"#utility.yul\":9388:9657   */\n    tag_100:\n        /* \"#utility.yul\":9498:9537   */\n      tag_220\n        /* \"#utility.yul\":9529:9536   */\n      dup4\n        /* \"#utility.yul\":9498:9537   */\n      tag_98\n      jump\t// in\n    tag_220:\n        /* \"#utility.yul\":9559:9650   */\n      tag_221\n        /* \"#utility.yul\":9608:9649   */\n      tag_222\n        /* \"#utility.yul\":9632:9648   */\n      dup3\n        /* \"#utility.yul\":9608:9649   */\n      tag_99\n      jump\t// in\n    tag_222:\n        /* \"#utility.yul\":9600:9606   */\n      dup5\n        /* \"#utility.yul\":9593:9597   */\n      dup5\n        /* \"#utility.yul\":9587:9598   */\n      sload\n        /* \"#utility.yul\":9559:9650   */\n      tag_96\n      jump\t// in\n    tag_221:\n        /* \"#utility.yul\":9553:9557   */\n      dup3\n        /* \"#utility.yul\":9546:9651   */\n      sstore\n        /* \"#utility.yul\":9464:9657   */\n      pop\n        /* \"#utility.yul\":9388:9657   */\n      pop\n      pop\n      pop\n      jump\t// out\n        /* \"#utility.yul\":9663:9736   */\n    tag_101:\n        /* \"#utility.yul\":9708:9711   */\n      0x00\n        /* \"#utility.yul\":9663:9736   */\n      swap1\n      jump\t// out\n        /* \"#utility.yul\":9742:9931   */\n    tag_102:\n        /* \"#utility.yul\":9819:9851   */\n      tag_225\n      tag_101\n      jump\t// in\n    tag_225:\n        /* \"#utility.yul\":9860:9925   */\n      tag_226\n        /* \"#utility.yul\":9918:9924   */\n      dup2\n        /* \"#utility.yul\":9910:9916   */\n      dup5\n        /* \"#utility.yul\":9904:9908   */\n      dup5\n        /* \"#utility.yul\":9860:9925   */\n      tag_100\n      jump\t// in\n    tag_226:\n        /* \"#utility.yul\":9795:9931   */\n      pop\n        /* \"#utility.yul\":9742:9931   */\n      pop\n      pop\n      jump\t// out\n        /* \"#utility.yul\":9937:10123   */\n    tag_103:\n        /* \"#utility.yul\":9997:10117   */\n    tag_228:\n        /* \"#utility.yul\":10014:10017   */\n      dup2\n        /* \"#utility.yul\":10007:10012   */\n      dup2\n        /* \"#utility.yul\":10004:10018   */\n      lt\n        /* \"#utility.yul\":9997:10117   */\n      iszero\n      tag_230\n      jumpi\n        /* \"#utility.yul\":10068:10107   */\n      tag_231\n        /* \"#utility.yul\":10105:10106   */\n      0x00\n        /* \"#utility.yul\":10098:10103   */\n      dup3\n        /* \"#utility.yul\":10068:10107   */\n      tag_102\n      jump\t// in\n    tag_231:\n        /* \"#utility.yul\":10041:10042   */\n      0x01\n        /* \"#utility.yul\":10034:10039   */\n      dup2\n        /* \"#utility.yul\":10030:10043   */\n      add\n        /* \"#utility.yul\":10021:10043   */\n      swap1\n      pop\n        /* \"#utility.yul\":9997:10117   */\n      jump(tag_228)\n    tag_230:\n        /* \"#utility.yul\":9937:10123   */\n      pop\n      pop\n      jump\t// out\n        /* \"#utility.yul\":10129:10672   */\n    tag_104:\n        /* \"#utility.yul\":10230:10232   */\n      0x1f\n        /* \"#utility.yul\":10225:10228   */\n      dup3\n        /* \"#utility.yul\":10222:10233   */\n      gt\n        /* \"#utility.yul\":10219:10665   */\n      iszero\n      tag_233\n      jumpi\n        /* \"#utility.yul\":10264:10302   */\n      tag_234\n        /* \"#utility.yul\":10296:10301   */\n      dup2\n        /* \"#utility.yul\":10264:10302   */\n      tag_93\n      jump\t// in\n    tag_234:\n        /* \"#utility.yul\":10348:10377   */\n      tag_235\n        /* \"#utility.yul\":10366:10376   */\n      dup5\n        /* \"#utility.yul\":10348:10377   */\n      tag_94\n      jump\t// in\n    tag_235:\n        /* \"#utility.yul\":10338:10346   */\n      dup2\n        /* \"#utility.yul\":10334:10378   */\n      add\n        /* \"#utility.yul\":10531:10533   */\n      0x20\n        /* \"#utility.yul\":10519:10529   */\n      dup6\n        /* \"#utility.yul\":10516:10534   */\n      lt\n        /* \"#utility.yul\":10513:10562   */\n      iszero\n      tag_236\n      jumpi\n        /* \"#utility.yul\":10552:10560   */\n      dup2\n        /* \"#utility.yul\":10537:10560   */\n      swap1\n      pop\n        /* \"#utility.yul\":10513:10562   */\n    tag_236:\n        /* \"#utility.yul\":10575:10655   */\n      tag_237\n        /* \"#utility.yul\":10631:10653   */\n      tag_238\n        /* \"#utility.yul\":10649:10652   */\n      dup6\n        /* \"#utility.yul\":10631:10653   */\n      tag_94\n      jump\t// in\n    tag_238:\n        /* \"#utility.yul\":10621:10629   */\n      dup4\n        /* \"#utility.yul\":10617:10654   */\n      add\n        /* \"#utility.yul\":10604:10615   */\n      dup3\n        /* \"#utility.yul\":10575:10655   */\n      tag_103\n      jump\t// in\n    tag_237:\n        /* \"#utility.yul\":10234:10665   */\n      pop\n      pop\n        /* \"#utility.yul\":10219:10665   */\n    tag_233:\n        /* \"#utility.yul\":10129:10672   */\n      pop\n      pop\n      pop\n      jump\t// out\n        /* \"#utility.yul\":10678:10795   */\n    tag_105:\n        /* \"#utility.yul\":10732:10740   */\n      0x00\n        /* \"#utility.yul\":10782:10787   */\n      dup3\n        /* \"#utility.yul\":10776:10780   */\n      dup3\n        /* \"#utility.yul\":10772:10788   */\n      shr\n        /* \"#utility.yul\":10751:10788   */\n      swap1\n      pop\n        /* \"#utility.yul\":10678:10795   */\n      swap3\n      swap2\n      pop\n      pop\n      jump\t// out\n        /* \"#utility.yul\":10801:10970   */\n    tag_106:\n        /* \"#utility.yul\":10845:10851   */\n      0x00\n        /* \"#utility.yul\":10878:10929   */\n      tag_241\n        /* \"#utility.yul\":10926:10927   */\n      0x00\n        /* \"#utility.yul\":10922:10928   */\n      not\n        /* \"#utility.yul\":10914:10919   */\n      dup5\n        /* \"#utility.yul\":10911:10912   */\n      0x08\n        /* \"#utility.yul\":10907:10920   */\n      mul\n        /* \"#utility.yul\":10878:10929   */\n      tag_105\n      jump\t// in\n    tag_241:\n        /* \"#utility.yul\":10874:10930   */\n      not\n        /* \"#utility.yul\":10959:10963   */\n      dup1\n        /* \"#utility.yul\":10953:10957   */\n      dup4\n        /* \"#utility.yul\":10949:10964   */\n      and\n        /* \"#utility.yul\":10939:10964   */\n      swap2\n      pop\n        /* \"#utility.yul\":10852:10970   */\n      pop\n        /* \"#utility.yul\":10801:10970   */\n      swap3\n      swap2\n      pop\n      pop\n      jump\t// out\n        /* \"#utility.yul\":10975:11270   */\n    tag_107:\n        /* \"#utility.yul\":11051:11055   */\n      0x00\n        /* \"#utility.yul\":11197:11226   */\n      tag_243\n        /* \"#utility.yul\":11222:11225   */\n      dup4\n        /* \"#utility.yul\":11216:11220   */\n      dup4\n        /* \"#utility.yul\":11197:11226   */\n      tag_106\n      jump\t// in\n    tag_243:\n        /* \"#utility.yul\":11189:11226   */\n      swap2\n      pop\n        /* \"#utility.yul\":11259:11262   */\n      dup3\n        /* \"#utility.yul\":11256:11257   */\n      0x02\n        /* \"#utility.yul\":11252:11263   */\n      mul\n        /* \"#utility.yul\":11246:11250   */\n      dup3\n        /* \"#utility.yul\":11243:11264   */\n      or\n        /* \"#utility.yul\":11235:11264   */\n      swap1\n      pop\n        /* \"#utility.yul\":10975:11270   */\n      swap3\n      swap2\n      pop\n      pop\n      jump\t// out\n        /* \"#utility.yul\":11275:12670   */\n    tag_43:\n        /* \"#utility.yul\":11392:11429   */\n      tag_245\n        /* \"#utility.yul\":11425:11428   */\n      dup3\n        /* \"#utility.yul\":11392:11429   */\n      tag_85\n      jump\t// in\n    tag_245:\n        /* \"#utility.yul\":11494:11512   */\n      0xffffffffffffffff\n        /* \"#utility.yul\":11486:11492   */\n      dup2\n        /* \"#utility.yul\":11483:11513   */\n      gt\n        /* \"#utility.yul\":11480:11536   */\n      iszero\n      tag_246\n      jumpi\n        /* \"#utility.yul\":11516:11534   */\n      tag_247\n      tag_68\n      jump\t// in\n    tag_247:\n        /* \"#utility.yul\":11480:11536   */\n    tag_246:\n        /* \"#utility.yul\":11560:11598   */\n      tag_248\n        /* \"#utility.yul\":11592:11596   */\n      dup3\n        /* \"#utility.yul\":11586:11597   */\n      sload\n        /* \"#utility.yul\":11560:11598   */\n      tag_49\n      jump\t// in\n    tag_248:\n        /* \"#utility.yul\":11645:11712   */\n      tag_249\n        /* \"#utility.yul\":11705:11711   */\n      dup3\n        /* \"#utility.yul\":11697:11703   */\n      dup3\n        /* \"#utility.yul\":11691:11695   */\n      dup6\n        /* \"#utility.yul\":11645:11712   */\n      tag_104\n      jump\t// in\n    tag_249:\n        /* \"#utility.yul\":11739:11740   */\n      0x00\n        /* \"#utility.yul\":11763:11767   */\n      0x20\n        /* \"#utility.yul\":11750:11767   */\n      swap1\n      pop\n        /* \"#utility.yul\":11795:11797   */\n      0x1f\n        /* \"#utility.yul\":11787:11793   */\n      dup4\n        /* \"#utility.yul\":11784:11798   */\n      gt\n        /* \"#utility.yul\":11812:11813   */\n      0x01\n        /* \"#utility.yul\":11807:12425   */\n      dup2\n      eq\n      tag_251\n      jumpi\n        /* \"#utility.yul\":12469:12470   */\n      0x00\n        /* \"#utility.yul\":12486:12492   */\n      dup5\n        /* \"#utility.yul\":12483:12560   */\n      iszero\n      tag_252\n      jumpi\n        /* \"#utility.yul\":12535:12544   */\n      dup3\n        /* \"#utility.yul\":12530:12533   */\n      dup8\n        /* \"#utility.yul\":12526:12545   */\n      add\n        /* \"#utility.yul\":12520:12546   */\n      mload\n        /* \"#utility.yul\":12511:12546   */\n      swap1\n      pop\n        /* \"#utility.yul\":12483:12560   */\n    tag_252:\n        /* \"#utility.yul\":12586:12653   */\n      tag_253\n        /* \"#utility.yul\":12646:12652   */\n      dup6\n        /* \"#utility.yul\":12639:12644   */\n      dup3\n        /* \"#utility.yul\":12586:12653   */\n      tag_107\n      jump\t// in\n    tag_253:\n        /* \"#utility.yul\":12580:12584   */\n      dup7\n        /* \"#utility.yul\":12573:12654   */\n      sstore\n        /* \"#utility.yul\":12442:12664   */\n      pop\n        /* \"#utility.yul\":11777:12664   */\n      jump(tag_250)\n        /* \"#utility.yul\":11807:12425   */\n    tag_251:\n        /* \"#utility.yul\":11859:11863   */\n      0x1f\n        /* \"#utility.yul\":11855:11864   */\n      not\n        /* \"#utility.yul\":11847:11853   */\n      dup5\n        /* \"#utility.yul\":11843:11865   */\n      and\n        /* \"#utility.yul\":11893:11930   */\n      tag_254\n        /* \"#utility.yul\":11925:11929   */\n      dup7\n        /* \"#utility.yul\":11893:11930   */\n      tag_93\n      jump\t// in\n    tag_254:\n        /* \"#utility.yul\":11952:11953   */\n      0x00\n        /* \"#utility.yul\":11966:12174   */\n    tag_255:\n        /* \"#utility.yul\":11980:11987   */\n      dup3\n        /* \"#utility.yul\":11977:11978   */\n      dup2\n        /* \"#utility.yul\":11974:11988   */\n      lt\n        /* \"#utility.yul\":11966:12174   */\n      iszero\n      tag_257\n      jumpi\n        /* \"#utility.yul\":12059:12068   */\n      dup5\n        /* \"#utility.yul\":12054:12057   */\n      dup10\n        /* \"#utility.yul\":12050:12069   */\n      add\n        /* \"#utility.yul\":12044:12070   */\n      mload\n        /* \"#utility.yul\":12036:12042   */\n      dup3\n        /* \"#utility.yul\":12029:12071   */\n      sstore\n        /* \"#utility.yul\":12110:12111   */\n      0x01\n        /* \"#utility.yul\":12102:12108   */\n      dup3\n        /* \"#utility.yul\":12098:12112   */\n      add\n        /* \"#utility.yul\":12088:12112   */\n      swap2\n      pop\n        /* \"#utility.yul\":12157:12159   */\n      0x20\n        /* \"#utility.yul\":12146:12155   */\n      dup6\n        /* \"#utility.yul\":12142:12160   */\n      add\n        /* \"#utility.yul\":12129:12160   */\n      swap5\n      pop\n        /* \"#utility.yul\":12003:12007   */\n      0x20\n        /* \"#utility.yul\":12000:12001   */\n      dup2\n        /* \"#utility.yul\":11996:12008   */\n      add\n        /* \"#utility.yul\":11991:12008   */\n      swap1\n      pop\n        /* \"#utility.yul\":11966:12174   */\n      jump(tag_255)\n    tag_257:\n        /* \"#utility.yul\":12202:12208   */\n      dup7\n        /* \"#utility.yul\":12193:12200   */\n      dup4\n        /* \"#utility.yul\":12190:12209   */\n      lt\n        /* \"#utility.yul\":12187:12366   */\n      iszero\n      tag_258\n      jumpi\n        /* \"#utility.yul\":12260:12269   */\n      dup5\n        /* \"#utility.yul\":12255:12258   */\n      dup10\n        /* \"#utility.yul\":12251:12270   */\n      add\n        /* \"#utility.yul\":12245:12271   */\n      mload\n        /* \"#utility.yul\":12303:12351   */\n      tag_259\n        /* \"#utility.yul\":12345:12349   */\n      0x1f\n        /* \"#utility.yul\":12337:12343   */\n      dup10\n        /* \"#utility.yul\":12333:12350   */\n      and\n        /* \"#utility.yul\":12322:12331   */\n      dup3\n        /* \"#utility.yul\":12303:12351   */\n      tag_106\n      jump\t// in\n    tag_259:\n        /* \"#utility.yul\":12295:12301   */\n      dup4\n        /* \"#utility.yul\":12288:12352   */\n      sstore\n        /* \"#utility.yul\":12210:12366   */\n      pop\n        /* \"#utility.yul\":12187:12366   */\n    tag_258:\n        /* \"#utility.yul\":12412:12413   */\n      0x01\n        /* \"#utility.yul\":12408:12409   */\n      0x02\n        /* \"#utility.yul\":12400:12406   */\n      dup9\n        /* \"#utility.yul\":12396:12410   */\n      mul\n        /* \"#utility.yul\":12392:12414   */\n      add\n        /* \"#utility.yul\":12386:12390   */\n      dup9\n        /* \"#utility.yul\":12379:12415   */\n      sstore\n        /* \"#utility.yul\":11814:12425   */\n      pop\n      pop\n      pop\n        /* \"#utility.yul\":11777:12664   */\n    tag_250:\n      pop\n        /* \"#utility.yul\":11367:12670   */\n      pop\n      pop\n      pop\n        /* \"#utility.yul\":11275:12670   */\n      pop\n      pop\n      jump\t// out\n        /* \"#utility.yul\":12676:12824   */\n    tag_108:\n        /* \"#utility.yul\":12778:12789   */\n      0x00\n        /* \"#utility.yul\":12815:12818   */\n      dup2\n        /* \"#utility.yul\":12800:12818   */\n      swap1\n      pop\n        /* \"#utility.yul\":12676:12824   */\n      swap3\n      swap2\n      pop\n      pop\n      jump\t// out\n        /* \"#utility.yul\":12830:13220   */\n    tag_109:\n        /* \"#utility.yul\":12936:12939   */\n      0x00\n        /* \"#utility.yul\":12964:13003   */\n      tag_262\n        /* \"#utility.yul\":12997:13002   */\n      dup3\n        /* \"#utility.yul\":12964:13003   */\n      tag_85\n      jump\t// in\n    tag_262:\n        /* \"#utility.yul\":13019:13108   */\n      tag_263\n        /* \"#utility.yul\":13101:13107   */\n      dup2\n        /* \"#utility.yul\":13096:13099   */\n      dup6\n        /* \"#utility.yul\":13019:13108   */\n      tag_108\n      jump\t// in\n    tag_263:\n        /* \"#utility.yul\":13012:13108   */\n      swap4\n      pop\n        /* \"#utility.yul\":13117:13182   */\n      tag_264\n        /* \"#utility.yul\":13175:13181   */\n      dup2\n        /* \"#utility.yul\":13170:13173   */\n      dup6\n        /* \"#utility.yul\":13163:13167   */\n      0x20\n        /* \"#utility.yul\":13156:13161   */\n      dup7\n        /* \"#utility.yul\":13152:13168   */\n      add\n        /* \"#utility.yul\":13117:13182   */\n      tag_87\n      jump\t// in\n    tag_264:\n        /* \"#utility.yul\":13207:13213   */\n      dup1\n        /* \"#utility.yul\":13202:13205   */\n      dup5\n        /* \"#utility.yul\":13198:13214   */\n      add\n        /* \"#utility.yul\":13191:13214   */\n      swap2\n      pop\n        /* \"#utility.yul\":12940:13220   */\n      pop\n        /* \"#utility.yul\":12830:13220   */\n      swap3\n      swap2\n      pop\n      pop\n      jump\t// out\n        /* \"#utility.yul\":13226:13501   */\n    tag_45:\n        /* \"#utility.yul\":13358:13361   */\n      0x00\n        /* \"#utility.yul\":13380:13475   */\n      tag_266\n        /* \"#utility.yul\":13471:13474   */\n      dup3\n        /* \"#utility.yul\":13462:13468   */\n      dup5\n        /* \"#utility.yul\":13380:13475   */\n      tag_109\n      jump\t// in\n    tag_266:\n        /* \"#utility.yul\":13373:13475   */\n      swap2\n      pop\n        /* \"#utility.yul\":13492:13495   */\n      dup2\n        /* \"#utility.yul\":13485:13495   */\n      swap1\n      pop\n        /* \"#utility.yul\":13226:13501   */\n      swap3\n      swap2\n      pop\n      pop\n      jump\t// out\n\n    auxdata: 0xa264697066735822122056de55d060f5cf45c9aa2401234794d03d7f511760a644d8de9418d19b2cb36d64736f6c634300081a0033\n}\n",
				"bytecode": {
					"linkReferences": {},
					"object": "608060405260405180608001604052806040518060400160405280600981526020017f53656261737469616e00000000000000000000000000000000000000000000008152508152602001603681526020015f15158152602001736addb767e9d0f4a0b538a4acef5749ad3dad6fd173ffffffffffffffffffffffffffffffffffffffff1681525060025f820151815f01908161009c919061035a565b50602082015181600101556040820151816002015f6101000a81548160ff02191690831515021790555060608201518160020160016101000a81548173ffffffffffffffffffffffffffffffffffffffff021916908373ffffffffffffffffffffffffffffffffffffffff160217905550505034801561011a575f80fd5b50610429565b5f81519050919050565b7f4e487b71000000000000000000000000000000000000000000000000000000005f52604160045260245ffd5b7f4e487b71000000000000000000000000000000000000000000000000000000005f52602260045260245ffd5b5f600282049050600182168061019b57607f821691505b6020821081036101ae576101ad610157565b5b50919050565b5f819050815f5260205f209050919050565b5f6020601f8301049050919050565b5f82821b905092915050565b5f600883026102107fffffffffffffffffffffffffffffffffffffffffffffffffffffffffffffffff826101d5565b61021a86836101d5565b95508019841693508086168417925050509392505050565b5f819050919050565b5f819050919050565b5f61025e61025961025484610232565b61023b565b610232565b9050919050565b5f819050919050565b61027783610244565b61028b61028382610265565b8484546101e1565b825550505050565b5f90565b61029f610293565b6102aa81848461026e565b505050565b5b818110156102cd576102c25f82610297565b6001810190506102b0565b5050565b601f821115610312576102e3816101b4565b6102ec846101c6565b810160208510156102fb578190505b61030f610307856101c6565b8301826102af565b50505b505050565b5f82821c905092915050565b5f6103325f1984600802610317565b1980831691505092915050565b5f61034a8383610323565b9150826002028217905092915050565b61036382610120565b67ffffffffffffffff81111561037c5761037b61012a565b5b6103868254610184565b6103918282856102d1565b5f60209050601f8311600181146103c2575f84156103b0578287015190505b6103ba858261033f565b865550610421565b601f1984166103d0866101b4565b5f5b828110156103f7578489015182556001820191506020850194506020810190506103d2565b868310156104145784890151610410601f891682610323565b8355505b6001600288020188555050505b505050505050565b610c07806104365f395ff3fe608060405234801561000f575f80fd5b506004361061007b575f3560e01c806343ede4ae1161005957806343ede4ae146100ec5780636057361d1461010a578063a83fbe5414610126578063b4a24f50146101565761007b565b80630739a50e1461007f57806314eaeb821461009b5780632e64cec1146100ce575b5f80fd5b610099600480360381019061009491906106bd565b610177565b005b6100b560048036038101906100b0919061073d565b61029e565b6040516100c594939291906107f5565b60405180910390f35b6100d661038b565b6040516100e3919061083f565b60405180910390f35b6100f4610393565b604051610101919061083f565b60405180910390f35b610124600480360381019061011f919061073d565b610398565b005b610140600480360381019061013b9190610858565b6103aa565b60405161014d919061089f565b60405180910390f35b61015e6103df565b60405161016e94939291906107f5565b60405180910390f35b5f604051806080016040528086815260200185815260200184151581526020018373ffffffffffffffffffffffffffffffffffffffff168152509050600581908060018154018082558091505060019003905f5260205f2090600302015f909190919091505f820151815f0190816101ef9190610ab2565b50602082015181600101556040820151816002015f6101000a81548160ff02191690831515021790555060608201518160020160016101000a81548173ffffffffffffffffffffffffffffffffffffffff021916908373ffffffffffffffffffffffffffffffffffffffff1602179055505050826001866040516102739190610bbb565b90815260200160405180910390205f6101000a81548160ff0219169083151502179055505050505050565b600581815481106102ad575f80fd5b905f5260205f2090600302015f91509050805f0180546102cc906108e5565b80601f01602080910402602001604051908101604052809291908181526020018280546102f8906108e5565b80156103435780601f1061031a57610100808354040283529160200191610343565b820191905f5260205f20905b81548152906001019060200180831161032657829003601f168201915b505050505090806001015490806002015f9054906101000a900460ff16908060020160019054906101000a900473ffffffffffffffffffffffffffffffffffffffff16905084565b5f8054905090565b5f5481565b805f819055506103a661038b565b5050565b6001818051602081018201805184825260208301602085012081835280955050505050505f915054906101000a900460ff1681565b6002805f0180546103ef906108e5565b80601f016020809104026020016040519081016040528092919081815260200182805461041b906108e5565b80156104665780601f1061043d57610100808354040283529160200191610466565b820191905f5260205f20905b81548152906001019060200180831161044957829003601f168201915b505050505090806001015490806002015f9054906101000a900460ff16908060020160019054906101000a900473ffffffffffffffffffffffffffffffffffffffff16905084565b5f604051905090565b5f80fd5b5f80fd5b5f80fd5b5f80fd5b5f601f19601f8301169050919050565b7f4e487b71000000000000000000000000000000000000000000000000000000005f52604160045260245ffd5b61050d826104c7565b810181811067ffffffffffffffff8211171561052c5761052b6104d7565b5b80604052505050565b5f61053e6104ae565b905061054a8282610504565b919050565b5f67ffffffffffffffff821115610569576105686104d7565b5b610572826104c7565b9050602081019050919050565b828183375f83830152505050565b5f61059f61059a8461054f565b610535565b9050828152602081018484840111156105bb576105ba6104c3565b5b6105c684828561057f565b509392505050565b5f82601f8301126105e2576105e16104bf565b5b81356105f284826020860161058d565b91505092915050565b5f819050919050565b61060d816105fb565b8114610617575f80fd5b50565b5f8135905061062881610604565b92915050565b5f8115159050919050565b6106428161062e565b811461064c575f80fd5b50565b5f8135905061065d81610639565b92915050565b5f73ffffffffffffffffffffffffffffffffffffffff82169050919050565b5f61068c82610663565b9050919050565b61069c81610682565b81146106a6575f80fd5b50565b5f813590506106b781610693565b92915050565b5f805f80608085870312156106d5576106d46104b7565b5b5f85013567ffffffffffffffff8111156106f2576106f16104bb565b5b6106fe878288016105ce565b945050602061070f8782880161061a565b93505060406107208782880161064f565b9250506060610731878288016106a9565b91505092959194509250565b5f60208284031215610752576107516104b7565b5b5f61075f8482850161061a565b91505092915050565b5f81519050919050565b5f82825260208201905092915050565b8281835e5f83830152505050565b5f61079a82610768565b6107a48185610772565b93506107b4818560208601610782565b6107bd816104c7565b840191505092915050565b6107d1816105fb565b82525050565b6107e08161062e565b82525050565b6107ef81610682565b82525050565b5f6080820190508181035f83015261080d8187610790565b905061081c60208301866107c8565b61082960408301856107d7565b61083660608301846107e6565b95945050505050565b5f6020820190506108525f8301846107c8565b92915050565b5f6020828403121561086d5761086c6104b7565b5b5f82013567ffffffffffffffff81111561088a576108896104bb565b5b610896848285016105ce565b91505092915050565b5f6020820190506108b25f8301846107d7565b92915050565b7f4e487b71000000000000000000000000000000000000000000000000000000005f52602260045260245ffd5b5f60028204905060018216806108fc57607f821691505b60208210810361090f5761090e6108b8565b5b50919050565b5f819050815f5260205f209050919050565b5f6020601f8301049050919050565b5f82821b905092915050565b5f600883026109717fffffffffffffffffffffffffffffffffffffffffffffffffffffffffffffffff82610936565b61097b8683610936565b95508019841693508086168417925050509392505050565b5f819050919050565b5f6109b66109b16109ac846105fb565b610993565b6105fb565b9050919050565b5f819050919050565b6109cf8361099c565b6109e36109db826109bd565b848454610942565b825550505050565b5f90565b6109f76109eb565b610a028184846109c6565b505050565b5b81811015610a2557610a1a5f826109ef565b600181019050610a08565b5050565b601f821115610a6a57610a3b81610915565b610a4484610927565b81016020851015610a53578190505b610a67610a5f85610927565b830182610a07565b50505b505050565b5f82821c905092915050565b5f610a8a5f1984600802610a6f565b1980831691505092915050565b5f610aa28383610a7b565b9150826002028217905092915050565b610abb82610768565b67ffffffffffffffff811115610ad457610ad36104d7565b5b610ade82546108e5565b610ae9828285610a29565b5f60209050601f831160018114610b1a575f8415610b08578287015190505b610b128582610a97565b865550610b79565b601f198416610b2886610915565b5f5b82811015610b4f57848901518255600182019150602085019450602081019050610b2a565b86831015610b6c5784890151610b68601f891682610a7b565b8355505b6001600288020188555050505b505050505050565b5f81905092915050565b5f610b9582610768565b610b9f8185610b81565b9350610baf818560208601610782565b80840191505092915050565b5f610bc68284610b8b565b91508190509291505056fea264697066735822122056de55d060f5cf45c9aa2401234794d03d7f511760a644d8de9418d19b2cb36d64736f6c634300081a0033",
					"opcodes": "PUSH1 0x80 PUSH1 0x40 MSTORE PUSH1 0x40 MLOAD DUP1 PUSH1 0x80 ADD PUSH1 0x40 MSTORE DUP1 PUSH1 0x40 MLOAD DUP1 PUSH1 0x40 ADD PUSH1 0x40 MSTORE DUP1 PUSH1 0x9 DUP2 MSTORE PUSH1 0x20 ADD PUSH32 0x53656261737469616E0000000000000000000000000000000000000000000000 DUP2 MSTORE POP DUP2 MSTORE PUSH1 0x20 ADD PUSH1 0x36 DUP2 MSTORE PUSH1 0x20 ADD PUSH0 ISZERO ISZERO DUP2 MSTORE PUSH1 0x20 ADD PUSH20 0x6ADDB767E9D0F4A0B538A4ACEF5749AD3DAD6FD1 PUSH20 0xFFFFFFFFFFFFFFFFFFFFFFFFFFFFFFFFFFFFFFFF AND DUP2 MSTORE POP PUSH1 0x2 PUSH0 DUP3 ADD MLOAD DUP2 PUSH0 ADD SWAP1 DUP2 PUSH2 0x9C SWAP2 SWAP1 PUSH2 0x35A JUMP JUMPDEST POP PUSH1 0x20 DUP3 ADD MLOAD DUP2 PUSH1 0x1 ADD SSTORE PUSH1 0x40 DUP3 ADD MLOAD DUP2 PUSH1 0x2 ADD PUSH0 PUSH2 0x100 EXP DUP2 SLOAD DUP2 PUSH1 0xFF MUL NOT AND SWAP1 DUP4 ISZERO ISZERO MUL OR SWAP1 SSTORE POP PUSH1 0x60 DUP3 ADD MLOAD DUP2 PUSH1 0x2 ADD PUSH1 0x1 PUSH2 0x100 EXP DUP2 SLOAD DUP2 PUSH20 0xFFFFFFFFFFFFFFFFFFFFFFFFFFFFFFFFFFFFFFFF MUL NOT AND SWAP1 DUP4 PUSH20 0xFFFFFFFFFFFFFFFFFFFFFFFFFFFFFFFFFFFFFFFF AND MUL OR SWAP1 SSTORE POP POP POP CALLVALUE DUP1 ISZERO PUSH2 0x11A JUMPI PUSH0 DUP1 REVERT JUMPDEST POP PUSH2 0x429 JUMP JUMPDEST PUSH0 DUP2 MLOAD SWAP1 POP SWAP2 SWAP1 POP JUMP JUMPDEST PUSH32 0x4E487B7100000000000000000000000000000000000000000000000000000000 PUSH0 MSTORE PUSH1 0x41 PUSH1 0x4 MSTORE PUSH1 0x24 PUSH0 REVERT JUMPDEST PUSH32 0x4E487B7100000000000000000000000000000000000000000000000000000000 PUSH0 MSTORE PUSH1 0x22 PUSH1 0x4 MSTORE PUSH1 0x24 PUSH0 REVERT JUMPDEST PUSH0 PUSH1 0x2 DUP3 DIV SWAP1 POP PUSH1 0x1 DUP3 AND DUP1 PUSH2 0x19B JUMPI PUSH1 0x7F DUP3 AND SWAP2 POP JUMPDEST PUSH1 0x20 DUP3 LT DUP2 SUB PUSH2 0x1AE JUMPI PUSH2 0x1AD PUSH2 0x157 JUMP JUMPDEST JUMPDEST POP SWAP2 SWAP1 POP JUMP JUMPDEST PUSH0 DUP2 SWAP1 POP DUP2 PUSH0 MSTORE PUSH1 0x20 PUSH0 KECCAK256 SWAP1 POP SWAP2 SWAP1 POP JUMP JUMPDEST PUSH0 PUSH1 0x20 PUSH1 0x1F DUP4 ADD DIV SWAP1 POP SWAP2 SWAP1 POP JUMP JUMPDEST PUSH0 DUP3 DUP3 SHL SWAP1 POP SWAP3 SWAP2 POP POP JUMP JUMPDEST PUSH0 PUSH1 0x8 DUP4 MUL PUSH2 0x210 PUSH32 0xFFFFFFFFFFFFFFFFFFFFFFFFFFFFFFFFFFFFFFFFFFFFFFFFFFFFFFFFFFFFFFFF DUP3 PUSH2 0x1D5 JUMP JUMPDEST PUSH2 0x21A DUP7 DUP4 PUSH2 0x1D5 JUMP JUMPDEST SWAP6 POP DUP1 NOT DUP5 AND SWAP4 POP DUP1 DUP7 AND DUP5 OR SWAP3 POP POP POP SWAP4 SWAP3 POP POP POP JUMP JUMPDEST PUSH0 DUP2 SWAP1 POP SWAP2 SWAP1 POP JUMP JUMPDEST PUSH0 DUP2 SWAP1 POP SWAP2 SWAP1 POP JUMP JUMPDEST PUSH0 PUSH2 0x25E PUSH2 0x259 PUSH2 0x254 DUP5 PUSH2 0x232 JUMP JUMPDEST PUSH2 0x23B JUMP JUMPDEST PUSH2 0x232 JUMP JUMPDEST SWAP1 POP SWAP2 SWAP1 POP JUMP JUMPDEST PUSH0 DUP2 SWAP1 POP SWAP2 SWAP1 POP JUMP JUMPDEST PUSH2 0x277 DUP4 PUSH2 0x244 JUMP JUMPDEST PUSH2 0x28B PUSH2 0x283 DUP3 PUSH2 0x265 JUMP JUMPDEST DUP5 DUP5 SLOAD PUSH2 0x1E1 JUMP JUMPDEST DUP3 SSTORE POP POP POP POP JUMP JUMPDEST PUSH0 SWAP1 JUMP JUMPDEST PUSH2 0x29F PUSH2 0x293 JUMP JUMPDEST PUSH2 0x2AA DUP2 DUP5 DUP5 PUSH2 0x26E JUMP JUMPDEST POP POP POP JUMP JUMPDEST JUMPDEST DUP2 DUP2 LT ISZERO PUSH2 0x2CD JUMPI PUSH2 0x2C2 PUSH0 DUP3 PUSH2 0x297 JUMP JUMPDEST PUSH1 0x1 DUP2 ADD SWAP1 POP PUSH2 0x2B0 JUMP JUMPDEST POP POP JUMP JUMPDEST PUSH1 0x1F DUP3 GT ISZERO PUSH2 0x312 JUMPI PUSH2 0x2E3 DUP2 PUSH2 0x1B4 JUMP JUMPDEST PUSH2 0x2EC DUP5 PUSH2 0x1C6 JUMP JUMPDEST DUP2 ADD PUSH1 0x20 DUP6 LT ISZERO PUSH2 0x2FB JUMPI DUP2 SWAP1 POP JUMPDEST PUSH2 0x30F PUSH2 0x307 DUP6 PUSH2 0x1C6 JUMP JUMPDEST DUP4 ADD DUP3 PUSH2 0x2AF JUMP JUMPDEST POP POP JUMPDEST POP POP POP JUMP JUMPDEST PUSH0 DUP3 DUP3 SHR SWAP1 POP SWAP3 SWAP2 POP POP JUMP JUMPDEST PUSH0 PUSH2 0x332 PUSH0 NOT DUP5 PUSH1 0x8 MUL PUSH2 0x317 JUMP JUMPDEST NOT DUP1 DUP4 AND SWAP2 POP POP SWAP3 SWAP2 POP POP JUMP JUMPDEST PUSH0 PUSH2 0x34A DUP4 DUP4 PUSH2 0x323 JUMP JUMPDEST SWAP2 POP DUP3 PUSH1 0x2 MUL DUP3 OR SWAP1 POP SWAP3 SWAP2 POP POP JUMP JUMPDEST PUSH2 0x363 DUP3 PUSH2 0x120 JUMP JUMPDEST PUSH8 0xFFFFFFFFFFFFFFFF DUP2 GT ISZERO PUSH2 0x37C JUMPI PUSH2 0x37B PUSH2 0x12A JUMP JUMPDEST JUMPDEST PUSH2 0x386 DUP3 SLOAD PUSH2 0x184 JUMP JUMPDEST PUSH2 0x391 DUP3 DUP3 DUP6 PUSH2 0x2D1 JUMP JUMPDEST PUSH0 PUSH1 0x20 SWAP1 POP PUSH1 0x1F DUP4 GT PUSH1 0x1 DUP2 EQ PUSH2 0x3C2 JUMPI PUSH0 DUP5 ISZERO PUSH2 0x3B0 JUMPI DUP3 DUP8 ADD MLOAD SWAP1 POP JUMPDEST PUSH2 0x3BA DUP6 DUP3 PUSH2 0x33F JUMP JUMPDEST DUP7 SSTORE POP PUSH2 0x421 JUMP JUMPDEST PUSH1 0x1F NOT DUP5 AND PUSH2 0x3D0 DUP7 PUSH2 0x1B4 JUMP JUMPDEST PUSH0 JUMPDEST DUP3 DUP2 LT ISZERO PUSH2 0x3F7 JUMPI DUP5 DUP10 ADD MLOAD DUP3 SSTORE PUSH1 0x1 DUP3 ADD SWAP2 POP PUSH1 0x20 DUP6 ADD SWAP5 POP PUSH1 0x20 DUP2 ADD SWAP1 POP PUSH2 0x3D2 JUMP JUMPDEST DUP7 DUP4 LT ISZERO PUSH2 0x414 JUMPI DUP5 DUP10 ADD MLOAD PUSH2 0x410 PUSH1 0x1F DUP10 AND DUP3 PUSH2 0x323 JUMP JUMPDEST DUP4 SSTORE POP JUMPDEST PUSH1 0x1 PUSH1 0x2 DUP9 MUL ADD DUP9 SSTORE POP POP POP JUMPDEST POP POP POP POP POP POP JUMP JUMPDEST PUSH2 0xC07 DUP1 PUSH2 0x436 PUSH0 CODECOPY PUSH0 RETURN INVALID PUSH1 0x80 PUSH1 0x40 MSTORE CALLVALUE DUP1 ISZERO PUSH2 0xF JUMPI PUSH0 DUP1 REVERT JUMPDEST POP PUSH1 0x4 CALLDATASIZE LT PUSH2 0x7B JUMPI PUSH0 CALLDATALOAD PUSH1 0xE0 SHR DUP1 PUSH4 0x43EDE4AE GT PUSH2 0x59 JUMPI DUP1 PUSH4 0x43EDE4AE EQ PUSH2 0xEC JUMPI DUP1 PUSH4 0x6057361D EQ PUSH2 0x10A JUMPI DUP1 PUSH4 0xA83FBE54 EQ PUSH2 0x126 JUMPI DUP1 PUSH4 0xB4A24F50 EQ PUSH2 0x156 JUMPI PUSH2 0x7B JUMP JUMPDEST DUP1 PUSH4 0x739A50E EQ PUSH2 0x7F JUMPI DUP1 PUSH4 0x14EAEB82 EQ PUSH2 0x9B JUMPI DUP1 PUSH4 0x2E64CEC1 EQ PUSH2 0xCE JUMPI JUMPDEST PUSH0 DUP1 REVERT JUMPDEST PUSH2 0x99 PUSH1 0x4 DUP1 CALLDATASIZE SUB DUP2 ADD SWAP1 PUSH2 0x94 SWAP2 SWAP1 PUSH2 0x6BD JUMP JUMPDEST PUSH2 0x177 JUMP JUMPDEST STOP JUMPDEST PUSH2 0xB5 PUSH1 0x4 DUP1 CALLDATASIZE SUB DUP2 ADD SWAP1 PUSH2 0xB0 SWAP2 SWAP1 PUSH2 0x73D JUMP JUMPDEST PUSH2 0x29E JUMP JUMPDEST PUSH1 0x40 MLOAD PUSH2 0xC5 SWAP5 SWAP4 SWAP3 SWAP2 SWAP1 PUSH2 0x7F5 JUMP JUMPDEST PUSH1 0x40 MLOAD DUP1 SWAP2 SUB SWAP1 RETURN JUMPDEST PUSH2 0xD6 PUSH2 0x38B JUMP JUMPDEST PUSH1 0x40 MLOAD PUSH2 0xE3 SWAP2 SWAP1 PUSH2 0x83F JUMP JUMPDEST PUSH1 0x40 MLOAD DUP1 SWAP2 SUB SWAP1 RETURN JUMPDEST PUSH2 0xF4 PUSH2 0x393 JUMP JUMPDEST PUSH1 0x40 MLOAD PUSH2 0x101 SWAP2 SWAP1 PUSH2 0x83F JUMP JUMPDEST PUSH1 0x40 MLOAD DUP1 SWAP2 SUB SWAP1 RETURN JUMPDEST PUSH2 0x124 PUSH1 0x4 DUP1 CALLDATASIZE SUB DUP2 ADD SWAP1 PUSH2 0x11F SWAP2 SWAP1 PUSH2 0x73D JUMP JUMPDEST PUSH2 0x398 JUMP JUMPDEST STOP JUMPDEST PUSH2 0x140 PUSH1 0x4 DUP1 CALLDATASIZE SUB DUP2 ADD SWAP1 PUSH2 0x13B SWAP2 SWAP1 PUSH2 0x858 JUMP JUMPDEST PUSH2 0x3AA JUMP JUMPDEST PUSH1 0x40 MLOAD PUSH2 0x14D SWAP2 SWAP1 PUSH2 0x89F JUMP JUMPDEST PUSH1 0x40 MLOAD DUP1 SWAP2 SUB SWAP1 RETURN JUMPDEST PUSH2 0x15E PUSH2 0x3DF JUMP JUMPDEST PUSH1 0x40 MLOAD PUSH2 0x16E SWAP5 SWAP4 SWAP3 SWAP2 SWAP1 PUSH2 0x7F5 JUMP JUMPDEST PUSH1 0x40 MLOAD DUP1 SWAP2 SUB SWAP1 RETURN JUMPDEST PUSH0 PUSH1 0x40 MLOAD DUP1 PUSH1 0x80 ADD PUSH1 0x40 MSTORE DUP1 DUP7 DUP2 MSTORE PUSH1 0x20 ADD DUP6 DUP2 MSTORE PUSH1 0x20 ADD DUP5 ISZERO ISZERO DUP2 MSTORE PUSH1 0x20 ADD DUP4 PUSH20 0xFFFFFFFFFFFFFFFFFFFFFFFFFFFFFFFFFFFFFFFF AND DUP2 MSTORE POP SWAP1 POP PUSH1 0x5 DUP2 SWAP1 DUP1 PUSH1 0x1 DUP2 SLOAD ADD DUP1 DUP3 SSTORE DUP1 SWAP2 POP POP PUSH1 0x1 SWAP1 SUB SWAP1 PUSH0 MSTORE PUSH1 0x20 PUSH0 KECCAK256 SWAP1 PUSH1 0x3 MUL ADD PUSH0 SWAP1 SWAP2 SWAP1 SWAP2 SWAP1 SWAP2 POP PUSH0 DUP3 ADD MLOAD DUP2 PUSH0 ADD SWAP1 DUP2 PUSH2 0x1EF SWAP2 SWAP1 PUSH2 0xAB2 JUMP JUMPDEST POP PUSH1 0x20 DUP3 ADD MLOAD DUP2 PUSH1 0x1 ADD SSTORE PUSH1 0x40 DUP3 ADD MLOAD DUP2 PUSH1 0x2 ADD PUSH0 PUSH2 0x100 EXP DUP2 SLOAD DUP2 PUSH1 0xFF MUL NOT AND SWAP1 DUP4 ISZERO ISZERO MUL OR SWAP1 SSTORE POP PUSH1 0x60 DUP3 ADD MLOAD DUP2 PUSH1 0x2 ADD PUSH1 0x1 PUSH2 0x100 EXP DUP2 SLOAD DUP2 PUSH20 0xFFFFFFFFFFFFFFFFFFFFFFFFFFFFFFFFFFFFFFFF MUL NOT AND SWAP1 DUP4 PUSH20 0xFFFFFFFFFFFFFFFFFFFFFFFFFFFFFFFFFFFFFFFF AND MUL OR SWAP1 SSTORE POP POP POP DUP3 PUSH1 0x1 DUP7 PUSH1 0x40 MLOAD PUSH2 0x273 SWAP2 SWAP1 PUSH2 0xBBB JUMP JUMPDEST SWAP1 DUP2 MSTORE PUSH1 0x20 ADD PUSH1 0x40 MLOAD DUP1 SWAP2 SUB SWAP1 KECCAK256 PUSH0 PUSH2 0x100 EXP DUP2 SLOAD DUP2 PUSH1 0xFF MUL NOT AND SWAP1 DUP4 ISZERO ISZERO MUL OR SWAP1 SSTORE POP POP POP POP POP POP JUMP JUMPDEST PUSH1 0x5 DUP2 DUP2 SLOAD DUP2 LT PUSH2 0x2AD JUMPI PUSH0 DUP1 REVERT JUMPDEST SWAP1 PUSH0 MSTORE PUSH1 0x20 PUSH0 KECCAK256 SWAP1 PUSH1 0x3 MUL ADD PUSH0 SWAP2 POP SWAP1 POP DUP1 PUSH0 ADD DUP1 SLOAD PUSH2 0x2CC SWAP1 PUSH2 0x8E5 JUMP JUMPDEST DUP1 PUSH1 0x1F ADD PUSH1 0x20 DUP1 SWAP2 DIV MUL PUSH1 0x20 ADD PUSH1 0x40 MLOAD SWAP1 DUP2 ADD PUSH1 0x40 MSTORE DUP1 SWAP3 SWAP2 SWAP1 DUP2 DUP2 MSTORE PUSH1 0x20 ADD DUP3 DUP1 SLOAD PUSH2 0x2F8 SWAP1 PUSH2 0x8E5 JUMP JUMPDEST DUP1 ISZERO PUSH2 0x343 JUMPI DUP1 PUSH1 0x1F LT PUSH2 0x31A JUMPI PUSH2 0x100 DUP1 DUP4 SLOAD DIV MUL DUP4 MSTORE SWAP2 PUSH1 0x20 ADD SWAP2 PUSH2 0x343 JUMP JUMPDEST DUP3 ADD SWAP2 SWAP1 PUSH0 MSTORE PUSH1 0x20 PUSH0 KECCAK256 SWAP1 JUMPDEST DUP2 SLOAD DUP2 MSTORE SWAP1 PUSH1 0x1 ADD SWAP1 PUSH1 0x20 ADD DUP1 DUP4 GT PUSH2 0x326 JUMPI DUP3 SWAP1 SUB PUSH1 0x1F AND DUP3 ADD SWAP2 JUMPDEST POP POP POP POP POP SWAP1 DUP1 PUSH1 0x1 ADD SLOAD SWAP1 DUP1 PUSH1 0x2 ADD PUSH0 SWAP1 SLOAD SWAP1 PUSH2 0x100 EXP SWAP1 DIV PUSH1 0xFF AND SWAP1 DUP1 PUSH1 0x2 ADD PUSH1 0x1 SWAP1 SLOAD SWAP1 PUSH2 0x100 EXP SWAP1 DIV PUSH20 0xFFFFFFFFFFFFFFFFFFFFFFFFFFFFFFFFFFFFFFFF AND SWAP1 POP DUP5 JUMP JUMPDEST PUSH0 DUP1 SLOAD SWAP1 POP SWAP1 JUMP JUMPDEST PUSH0 SLOAD DUP2 JUMP JUMPDEST DUP1 PUSH0 DUP2 SWAP1 SSTORE POP PUSH2 0x3A6 PUSH2 0x38B JUMP JUMPDEST POP POP JUMP JUMPDEST PUSH1 0x1 DUP2 DUP1 MLOAD PUSH1 0x20 DUP2 ADD DUP3 ADD DUP1 MLOAD DUP5 DUP3 MSTORE PUSH1 0x20 DUP4 ADD PUSH1 0x20 DUP6 ADD KECCAK256 DUP2 DUP4 MSTORE DUP1 SWAP6 POP POP POP POP POP POP PUSH0 SWAP2 POP SLOAD SWAP1 PUSH2 0x100 EXP SWAP1 DIV PUSH1 0xFF AND DUP2 JUMP JUMPDEST PUSH1 0x2 DUP1 PUSH0 ADD DUP1 SLOAD PUSH2 0x3EF SWAP1 PUSH2 0x8E5 JUMP JUMPDEST DUP1 PUSH1 0x1F ADD PUSH1 0x20 DUP1 SWAP2 DIV MUL PUSH1 0x20 ADD PUSH1 0x40 MLOAD SWAP1 DUP2 ADD PUSH1 0x40 MSTORE DUP1 SWAP3 SWAP2 SWAP1 DUP2 DUP2 MSTORE PUSH1 0x20 ADD DUP3 DUP1 SLOAD PUSH2 0x41B SWAP1 PUSH2 0x8E5 JUMP JUMPDEST DUP1 ISZERO PUSH2 0x466 JUMPI DUP1 PUSH1 0x1F LT PUSH2 0x43D JUMPI PUSH2 0x100 DUP1 DUP4 SLOAD DIV MUL DUP4 MSTORE SWAP2 PUSH1 0x20 ADD SWAP2 PUSH2 0x466 JUMP JUMPDEST DUP3 ADD SWAP2 SWAP1 PUSH0 MSTORE PUSH1 0x20 PUSH0 KECCAK256 SWAP1 JUMPDEST DUP2 SLOAD DUP2 MSTORE SWAP1 PUSH1 0x1 ADD SWAP1 PUSH1 0x20 ADD DUP1 DUP4 GT PUSH2 0x449 JUMPI DUP3 SWAP1 SUB PUSH1 0x1F AND DUP3 ADD SWAP2 JUMPDEST POP POP POP POP POP SWAP1 DUP1 PUSH1 0x1 ADD SLOAD SWAP1 DUP1 PUSH1 0x2 ADD PUSH0 SWAP1 SLOAD SWAP1 PUSH2 0x100 EXP SWAP1 DIV PUSH1 0xFF AND SWAP1 DUP1 PUSH1 0x2 ADD PUSH1 0x1 SWAP1 SLOAD SWAP1 PUSH2 0x100 EXP SWAP1 DIV PUSH20 0xFFFFFFFFFFFFFFFFFFFFFFFFFFFFFFFFFFFFFFFF AND SWAP1 POP DUP5 JUMP JUMPDEST PUSH0 PUSH1 0x40 MLOAD SWAP1 POP SWAP1 JUMP JUMPDEST PUSH0 DUP1 REVERT JUMPDEST PUSH0 DUP1 REVERT JUMPDEST PUSH0 DUP1 REVERT JUMPDEST PUSH0 DUP1 REVERT JUMPDEST PUSH0 PUSH1 0x1F NOT PUSH1 0x1F DUP4 ADD AND SWAP1 POP SWAP2 SWAP1 POP JUMP JUMPDEST PUSH32 0x4E487B7100000000000000000000000000000000000000000000000000000000 PUSH0 MSTORE PUSH1 0x41 PUSH1 0x4 MSTORE PUSH1 0x24 PUSH0 REVERT JUMPDEST PUSH2 0x50D DUP3 PUSH2 0x4C7 JUMP JUMPDEST DUP2 ADD DUP2 DUP2 LT PUSH8 0xFFFFFFFFFFFFFFFF DUP3 GT OR ISZERO PUSH2 0x52C JUMPI PUSH2 0x52B PUSH2 0x4D7 JUMP JUMPDEST JUMPDEST DUP1 PUSH1 0x40 MSTORE POP POP POP JUMP JUMPDEST PUSH0 PUSH2 0x53E PUSH2 0x4AE JUMP JUMPDEST SWAP1 POP PUSH2 0x54A DUP3 DUP3 PUSH2 0x504 JUMP JUMPDEST SWAP2 SWAP1 POP JUMP JUMPDEST PUSH0 PUSH8 0xFFFFFFFFFFFFFFFF DUP3 GT ISZERO PUSH2 0x569 JUMPI PUSH2 0x568 PUSH2 0x4D7 JUMP JUMPDEST JUMPDEST PUSH2 0x572 DUP3 PUSH2 0x4C7 JUMP JUMPDEST SWAP1 POP PUSH1 0x20 DUP2 ADD SWAP1 POP SWAP2 SWAP1 POP JUMP JUMPDEST DUP3 DUP2 DUP4 CALLDATACOPY PUSH0 DUP4 DUP4 ADD MSTORE POP POP POP JUMP JUMPDEST PUSH0 PUSH2 0x59F PUSH2 0x59A DUP5 PUSH2 0x54F JUMP JUMPDEST PUSH2 0x535 JUMP JUMPDEST SWAP1 POP DUP3 DUP2 MSTORE PUSH1 0x20 DUP2 ADD DUP5 DUP5 DUP5 ADD GT ISZERO PUSH2 0x5BB JUMPI PUSH2 0x5BA PUSH2 0x4C3 JUMP JUMPDEST JUMPDEST PUSH2 0x5C6 DUP5 DUP3 DUP6 PUSH2 0x57F JUMP JUMPDEST POP SWAP4 SWAP3 POP POP POP JUMP JUMPDEST PUSH0 DUP3 PUSH1 0x1F DUP4 ADD SLT PUSH2 0x5E2 JUMPI PUSH2 0x5E1 PUSH2 0x4BF JUMP JUMPDEST JUMPDEST DUP2 CALLDATALOAD PUSH2 0x5F2 DUP5 DUP3 PUSH1 0x20 DUP7 ADD PUSH2 0x58D JUMP JUMPDEST SWAP2 POP POP SWAP3 SWAP2 POP POP JUMP JUMPDEST PUSH0 DUP2 SWAP1 POP SWAP2 SWAP1 POP JUMP JUMPDEST PUSH2 0x60D DUP2 PUSH2 0x5FB JUMP JUMPDEST DUP2 EQ PUSH2 0x617 JUMPI PUSH0 DUP1 REVERT JUMPDEST POP JUMP JUMPDEST PUSH0 DUP2 CALLDATALOAD SWAP1 POP PUSH2 0x628 DUP2 PUSH2 0x604 JUMP JUMPDEST SWAP3 SWAP2 POP POP JUMP JUMPDEST PUSH0 DUP2 ISZERO ISZERO SWAP1 POP SWAP2 SWAP1 POP JUMP JUMPDEST PUSH2 0x642 DUP2 PUSH2 0x62E JUMP JUMPDEST DUP2 EQ PUSH2 0x64C JUMPI PUSH0 DUP1 REVERT JUMPDEST POP JUMP JUMPDEST PUSH0 DUP2 CALLDATALOAD SWAP1 POP PUSH2 0x65D DUP2 PUSH2 0x639 JUMP JUMPDEST SWAP3 SWAP2 POP POP JUMP JUMPDEST PUSH0 PUSH20 0xFFFFFFFFFFFFFFFFFFFFFFFFFFFFFFFFFFFFFFFF DUP3 AND SWAP1 POP SWAP2 SWAP1 POP JUMP JUMPDEST PUSH0 PUSH2 0x68C DUP3 PUSH2 0x663 JUMP JUMPDEST SWAP1 POP SWAP2 SWAP1 POP JUMP JUMPDEST PUSH2 0x69C DUP2 PUSH2 0x682 JUMP JUMPDEST DUP2 EQ PUSH2 0x6A6 JUMPI PUSH0 DUP1 REVERT JUMPDEST POP JUMP JUMPDEST PUSH0 DUP2 CALLDATALOAD SWAP1 POP PUSH2 0x6B7 DUP2 PUSH2 0x693 JUMP JUMPDEST SWAP3 SWAP2 POP POP JUMP JUMPDEST PUSH0 DUP1 PUSH0 DUP1 PUSH1 0x80 DUP6 DUP8 SUB SLT ISZERO PUSH2 0x6D5 JUMPI PUSH2 0x6D4 PUSH2 0x4B7 JUMP JUMPDEST JUMPDEST PUSH0 DUP6 ADD CALLDATALOAD PUSH8 0xFFFFFFFFFFFFFFFF DUP2 GT ISZERO PUSH2 0x6F2 JUMPI PUSH2 0x6F1 PUSH2 0x4BB JUMP JUMPDEST JUMPDEST PUSH2 0x6FE DUP8 DUP3 DUP9 ADD PUSH2 0x5CE JUMP JUMPDEST SWAP5 POP POP PUSH1 0x20 PUSH2 0x70F DUP8 DUP3 DUP9 ADD PUSH2 0x61A JUMP JUMPDEST SWAP4 POP POP PUSH1 0x40 PUSH2 0x720 DUP8 DUP3 DUP9 ADD PUSH2 0x64F JUMP JUMPDEST SWAP3 POP POP PUSH1 0x60 PUSH2 0x731 DUP8 DUP3 DUP9 ADD PUSH2 0x6A9 JUMP JUMPDEST SWAP2 POP POP SWAP3 SWAP6 SWAP2 SWAP5 POP SWAP3 POP JUMP JUMPDEST PUSH0 PUSH1 0x20 DUP3 DUP5 SUB SLT ISZERO PUSH2 0x752 JUMPI PUSH2 0x751 PUSH2 0x4B7 JUMP JUMPDEST JUMPDEST PUSH0 PUSH2 0x75F DUP5 DUP3 DUP6 ADD PUSH2 0x61A JUMP JUMPDEST SWAP2 POP POP SWAP3 SWAP2 POP POP JUMP JUMPDEST PUSH0 DUP2 MLOAD SWAP1 POP SWAP2 SWAP1 POP JUMP JUMPDEST PUSH0 DUP3 DUP3 MSTORE PUSH1 0x20 DUP3 ADD SWAP1 POP SWAP3 SWAP2 POP POP JUMP JUMPDEST DUP3 DUP2 DUP4 MCOPY PUSH0 DUP4 DUP4 ADD MSTORE POP POP POP JUMP JUMPDEST PUSH0 PUSH2 0x79A DUP3 PUSH2 0x768 JUMP JUMPDEST PUSH2 0x7A4 DUP2 DUP6 PUSH2 0x772 JUMP JUMPDEST SWAP4 POP PUSH2 0x7B4 DUP2 DUP6 PUSH1 0x20 DUP7 ADD PUSH2 0x782 JUMP JUMPDEST PUSH2 0x7BD DUP2 PUSH2 0x4C7 JUMP JUMPDEST DUP5 ADD SWAP2 POP POP SWAP3 SWAP2 POP POP JUMP JUMPDEST PUSH2 0x7D1 DUP2 PUSH2 0x5FB JUMP JUMPDEST DUP3 MSTORE POP POP JUMP JUMPDEST PUSH2 0x7E0 DUP2 PUSH2 0x62E JUMP JUMPDEST DUP3 MSTORE POP POP JUMP JUMPDEST PUSH2 0x7EF DUP2 PUSH2 0x682 JUMP JUMPDEST DUP3 MSTORE POP POP JUMP JUMPDEST PUSH0 PUSH1 0x80 DUP3 ADD SWAP1 POP DUP2 DUP2 SUB PUSH0 DUP4 ADD MSTORE PUSH2 0x80D DUP2 DUP8 PUSH2 0x790 JUMP JUMPDEST SWAP1 POP PUSH2 0x81C PUSH1 0x20 DUP4 ADD DUP7 PUSH2 0x7C8 JUMP JUMPDEST PUSH2 0x829 PUSH1 0x40 DUP4 ADD DUP6 PUSH2 0x7D7 JUMP JUMPDEST PUSH2 0x836 PUSH1 0x60 DUP4 ADD DUP5 PUSH2 0x7E6 JUMP JUMPDEST SWAP6 SWAP5 POP POP POP POP POP JUMP JUMPDEST PUSH0 PUSH1 0x20 DUP3 ADD SWAP1 POP PUSH2 0x852 PUSH0 DUP4 ADD DUP5 PUSH2 0x7C8 JUMP JUMPDEST SWAP3 SWAP2 POP POP JUMP JUMPDEST PUSH0 PUSH1 0x20 DUP3 DUP5 SUB SLT ISZERO PUSH2 0x86D JUMPI PUSH2 0x86C PUSH2 0x4B7 JUMP JUMPDEST JUMPDEST PUSH0 DUP3 ADD CALLDATALOAD PUSH8 0xFFFFFFFFFFFFFFFF DUP2 GT ISZERO PUSH2 0x88A JUMPI PUSH2 0x889 PUSH2 0x4BB JUMP JUMPDEST JUMPDEST PUSH2 0x896 DUP5 DUP3 DUP6 ADD PUSH2 0x5CE JUMP JUMPDEST SWAP2 POP POP SWAP3 SWAP2 POP POP JUMP JUMPDEST PUSH0 PUSH1 0x20 DUP3 ADD SWAP1 POP PUSH2 0x8B2 PUSH0 DUP4 ADD DUP5 PUSH2 0x7D7 JUMP JUMPDEST SWAP3 SWAP2 POP POP JUMP JUMPDEST PUSH32 0x4E487B7100000000000000000000000000000000000000000000000000000000 PUSH0 MSTORE PUSH1 0x22 PUSH1 0x4 MSTORE PUSH1 0x24 PUSH0 REVERT JUMPDEST PUSH0 PUSH1 0x2 DUP3 DIV SWAP1 POP PUSH1 0x1 DUP3 AND DUP1 PUSH2 0x8FC JUMPI PUSH1 0x7F DUP3 AND SWAP2 POP JUMPDEST PUSH1 0x20 DUP3 LT DUP2 SUB PUSH2 0x90F JUMPI PUSH2 0x90E PUSH2 0x8B8 JUMP JUMPDEST JUMPDEST POP SWAP2 SWAP1 POP JUMP JUMPDEST PUSH0 DUP2 SWAP1 POP DUP2 PUSH0 MSTORE PUSH1 0x20 PUSH0 KECCAK256 SWAP1 POP SWAP2 SWAP1 POP JUMP JUMPDEST PUSH0 PUSH1 0x20 PUSH1 0x1F DUP4 ADD DIV SWAP1 POP SWAP2 SWAP1 POP JUMP JUMPDEST PUSH0 DUP3 DUP3 SHL SWAP1 POP SWAP3 SWAP2 POP POP JUMP JUMPDEST PUSH0 PUSH1 0x8 DUP4 MUL PUSH2 0x971 PUSH32 0xFFFFFFFFFFFFFFFFFFFFFFFFFFFFFFFFFFFFFFFFFFFFFFFFFFFFFFFFFFFFFFFF DUP3 PUSH2 0x936 JUMP JUMPDEST PUSH2 0x97B DUP7 DUP4 PUSH2 0x936 JUMP JUMPDEST SWAP6 POP DUP1 NOT DUP5 AND SWAP4 POP DUP1 DUP7 AND DUP5 OR SWAP3 POP POP POP SWAP4 SWAP3 POP POP POP JUMP JUMPDEST PUSH0 DUP2 SWAP1 POP SWAP2 SWAP1 POP JUMP JUMPDEST PUSH0 PUSH2 0x9B6 PUSH2 0x9B1 PUSH2 0x9AC DUP5 PUSH2 0x5FB JUMP JUMPDEST PUSH2 0x993 JUMP JUMPDEST PUSH2 0x5FB JUMP JUMPDEST SWAP1 POP SWAP2 SWAP1 POP JUMP JUMPDEST PUSH0 DUP2 SWAP1 POP SWAP2 SWAP1 POP JUMP JUMPDEST PUSH2 0x9CF DUP4 PUSH2 0x99C JUMP JUMPDEST PUSH2 0x9E3 PUSH2 0x9DB DUP3 PUSH2 0x9BD JUMP JUMPDEST DUP5 DUP5 SLOAD PUSH2 0x942 JUMP JUMPDEST DUP3 SSTORE POP POP POP POP JUMP JUMPDEST PUSH0 SWAP1 JUMP JUMPDEST PUSH2 0x9F7 PUSH2 0x9EB JUMP JUMPDEST PUSH2 0xA02 DUP2 DUP5 DUP5 PUSH2 0x9C6 JUMP JUMPDEST POP POP POP JUMP JUMPDEST JUMPDEST DUP2 DUP2 LT ISZERO PUSH2 0xA25 JUMPI PUSH2 0xA1A PUSH0 DUP3 PUSH2 0x9EF JUMP JUMPDEST PUSH1 0x1 DUP2 ADD SWAP1 POP PUSH2 0xA08 JUMP JUMPDEST POP POP JUMP JUMPDEST PUSH1 0x1F DUP3 GT ISZERO PUSH2 0xA6A JUMPI PUSH2 0xA3B DUP2 PUSH2 0x915 JUMP JUMPDEST PUSH2 0xA44 DUP5 PUSH2 0x927 JUMP JUMPDEST DUP2 ADD PUSH1 0x20 DUP6 LT ISZERO PUSH2 0xA53 JUMPI DUP2 SWAP1 POP JUMPDEST PUSH2 0xA67 PUSH2 0xA5F DUP6 PUSH2 0x927 JUMP JUMPDEST DUP4 ADD DUP3 PUSH2 0xA07 JUMP JUMPDEST POP POP JUMPDEST POP POP POP JUMP JUMPDEST PUSH0 DUP3 DUP3 SHR SWAP1 POP SWAP3 SWAP2 POP POP JUMP JUMPDEST PUSH0 PUSH2 0xA8A PUSH0 NOT DUP5 PUSH1 0x8 MUL PUSH2 0xA6F JUMP JUMPDEST NOT DUP1 DUP4 AND SWAP2 POP POP SWAP3 SWAP2 POP POP JUMP JUMPDEST PUSH0 PUSH2 0xAA2 DUP4 DUP4 PUSH2 0xA7B JUMP JUMPDEST SWAP2 POP DUP3 PUSH1 0x2 MUL DUP3 OR SWAP1 POP SWAP3 SWAP2 POP POP JUMP JUMPDEST PUSH2 0xABB DUP3 PUSH2 0x768 JUMP JUMPDEST PUSH8 0xFFFFFFFFFFFFFFFF DUP2 GT ISZERO PUSH2 0xAD4 JUMPI PUSH2 0xAD3 PUSH2 0x4D7 JUMP JUMPDEST JUMPDEST PUSH2 0xADE DUP3 SLOAD PUSH2 0x8E5 JUMP JUMPDEST PUSH2 0xAE9 DUP3 DUP3 DUP6 PUSH2 0xA29 JUMP JUMPDEST PUSH0 PUSH1 0x20 SWAP1 POP PUSH1 0x1F DUP4 GT PUSH1 0x1 DUP2 EQ PUSH2 0xB1A JUMPI PUSH0 DUP5 ISZERO PUSH2 0xB08 JUMPI DUP3 DUP8 ADD MLOAD SWAP1 POP JUMPDEST PUSH2 0xB12 DUP6 DUP3 PUSH2 0xA97 JUMP JUMPDEST DUP7 SSTORE POP PUSH2 0xB79 JUMP JUMPDEST PUSH1 0x1F NOT DUP5 AND PUSH2 0xB28 DUP7 PUSH2 0x915 JUMP JUMPDEST PUSH0 JUMPDEST DUP3 DUP2 LT ISZERO PUSH2 0xB4F JUMPI DUP5 DUP10 ADD MLOAD DUP3 SSTORE PUSH1 0x1 DUP3 ADD SWAP2 POP PUSH1 0x20 DUP6 ADD SWAP5 POP PUSH1 0x20 DUP2 ADD SWAP1 POP PUSH2 0xB2A JUMP JUMPDEST DUP7 DUP4 LT ISZERO PUSH2 0xB6C JUMPI DUP5 DUP10 ADD MLOAD PUSH2 0xB68 PUSH1 0x1F DUP10 AND DUP3 PUSH2 0xA7B JUMP JUMPDEST DUP4 SSTORE POP JUMPDEST PUSH1 0x1 PUSH1 0x2 DUP9 MUL ADD DUP9 SSTORE POP POP POP JUMPDEST POP POP POP POP POP POP JUMP JUMPDEST PUSH0 DUP2 SWAP1 POP SWAP3 SWAP2 POP POP JUMP JUMPDEST PUSH0 PUSH2 0xB95 DUP3 PUSH2 0x768 JUMP JUMPDEST PUSH2 0xB9F DUP2 DUP6 PUSH2 0xB81 JUMP JUMPDEST SWAP4 POP PUSH2 0xBAF DUP2 DUP6 PUSH1 0x20 DUP7 ADD PUSH2 0x782 JUMP JUMPDEST DUP1 DUP5 ADD SWAP2 POP POP SWAP3 SWAP2 POP POP JUMP JUMPDEST PUSH0 PUSH2 0xBC6 DUP3 DUP5 PUSH2 0xB8B JUMP JUMPDEST SWAP2 POP DUP2 SWAP1 POP SWAP3 SWAP2 POP POP JUMP INVALID LOG2 PUSH5 0x6970667358 0x22 SLT KECCAK256 JUMP 0xDE SSTORE 0xD0 PUSH1 0xF5 0xCF GASLIMIT 0xC9 0xAA 0x24 ADD 0x23 SELFBALANCE SWAP5 0xD0 RETURNDATASIZE PUSH32 0x511760A644D8DE9418D19B2CB36D64736F6C634300081A003300000000000000 "
				},
				"gasEstimates": {
					"creation": {
						"codeDepositCost": "615800",
						"executionCost": "infinite",
						"totalCost": "infinite"
					},
					"external": {
						"addPerson(string,uint256,bool,address)": "infinite",
						"allUsersDetails(uint256)": "infinite",
						"favouriteNumber()": "2424",
						"nameToIsActive(string)": "infinite",
						"pat()": "infinite",
						"retrieve()": "2477",
						"store(uint256)": "24675"
					}
				},
				"methodIdentifiers": {
					"addPerson(string,uint256,bool,address)": "0739a50e",
					"allUsersDetails(uint256)": "14eaeb82",
					"favouriteNumber()": "43ede4ae",
					"nameToIsActive(string)": "a83fbe54",
					"pat()": "b4a24f50",
					"retrieve()": "2e64cec1",
					"store(uint256)": "6057361d"
				}
			},
			"storageLayout": {
				"storage": [
					{
						"astId": 12,
						"contract": "contracts/SimpleStorage.sol:MyContract",
						"label": "favouriteNumber",
						"offset": 0,
						"slot": "0",
						"type": "t_uint256"
					},
					{
						"astId": 16,
						"contract": "contracts/SimpleStorage.sol:MyContract",
						"label": "nameToIsActive",
						"offset": 0,
						"slot": "1",
						"type": "t_mapping(t_string_memory_ptr,t_bool)"
					},
					{
						"astId": 25,
						"contract": "contracts/SimpleStorage.sol:MyContract",
						"label": "pat",
						"offset": 0,
						"slot": "2",
						"type": "t_struct(Person)10_storage"
					},
					{
						"astId": 29,
						"contract": "contracts/SimpleStorage.sol:MyContract",
						"label": "allUsersDetails",
						"offset": 0,
						"slot": "5",
						"type": "t_array(t_struct(Person)10_storage)dyn_storage"
					}
				],
				"types": {
					"t_address": {
						"encoding": "inplace",
						"label": "address",
						"numberOfBytes": "20"
					},
					"t_array(t_struct(Person)10_storage)dyn_storage": {
						"base": "t_struct(Person)10_storage",
						"encoding": "dynamic_array",
						"label": "struct MyContract.Person[]",
						"numberOfBytes": "32"
					},
					"t_bool": {
						"encoding": "inplace",
						"label": "bool",
						"numberOfBytes": "1"
					},
					"t_mapping(t_string_memory_ptr,t_bool)": {
						"encoding": "mapping",
						"key": "t_string_memory_ptr",
						"label": "mapping(string => bool)",
						"numberOfBytes": "32",
						"value": "t_bool"
					},
					"t_string_memory_ptr": {
						"encoding": "bytes",
						"label": "string",
						"numberOfBytes": "32"
					},
					"t_string_storage": {
						"encoding": "bytes",
						"label": "string",
						"numberOfBytes": "32"
					},
					"t_struct(Person)10_storage": {
						"encoding": "inplace",
						"label": "struct MyContract.Person",
						"members": [
							{
								"astId": 3,
								"contract": "contracts/SimpleStorage.sol:MyContract",
								"label": "name",
								"offset": 0,
								"slot": "0",
								"type": "t_string_storage"
							},
							{
								"astId": 5,
								"contract": "contracts/SimpleStorage.sol:MyContract",
								"label": "age",
								"offset": 0,
								"slot": "1",
								"type": "t_uint256"
							},
							{
								"astId": 7,
								"contract": "contracts/SimpleStorage.sol:MyContract",
								"label": "isActive",
								"offset": 0,
								"slot": "2",
								"type": "t_bool"
							},
							{
								"astId": 9,
								"contract": "contracts/SimpleStorage.sol:MyContract",
								"label": "walletAddress",
								"offset": 1,
								"slot": "2",
								"type": "t_address"
							}
						],
						"numberOfBytes": "96"
					},
					"t_uint256": {
						"encoding": "inplace",
						"label": "uint256",
						"numberOfBytes": "32"
					}
				}
			},
			"userdoc": {
				"kind": "user",
				"methods": {},
				"version": 1
			}
		}
	}
}